:100000000C941D180C944E180C944E180C944E1809
:100010000C944E180C944E180C944E180C944E18C8
:100020000C944E180C944E180C944E180C944E18B8
:100030000C944E180C942C760C944E180C944E186C
:100040000C944E180C942CD00C944E180C944E1802
:100050000C944E180C944E180C941F7B0C944878FA
:100060000C944E180C9423D70C94CAD70C944E18A9
:100070000C944E180C944E180C944E180C944E1868
:100080000C944E180C944E180C944E180C944E1858
:100090000C944E180C944E180C944E180C944E1848
:1000A0000C944E180C944E180C944E180C944E1838
:1000B0000C944E180C944E180C944E180C944E1828
:1000C0000C944E180C944E180C944E180C944E1818
:1000D0000C944E180C944E180C944D540C940E54D1
:1000E0000C944E18CD1AEA1A1B1B381B4D1B771B9C
:1000F000E41B4A1CF91CA421AE2156227E22822236
:10010000E122C527F622422369239223BE2313242A
:100110002424382449245A246B24C527D026C527F3
:10012000DB264B27512771277575787567756B75B9
:100130007175AF757C75807586758A758E759475C9
:1001400098759C75AF75A275A675AA752D773277CF
:10015000377741774B77C47755775D7765776F77DA
:100160007977837792779C77C477A677B077BA77D9
:1001700055D75BD76CD777D77FD794D783D794D70A
:1001800087D78BD794D791D7084AD73B3BCE016E00
:1001900084BCBFFDC12F3D6C74319ABD56833DDADE
:1001A0003D00C77F11BED9E4BB4C3E916BAAAABEED
:1001B000000000803F05A84CCDB2D44EB93836A916
:1001C000020C50B9918688083CA6AAAA2ABE000053
:1001D00000803F004E414E494E495459494E46CD4C
:1001E000CCCC3D0AD7233C17B7D13877CC2B3295EE
:1001F00095E6241FB14F0A000020410000C84200CC
:10020000401C4620BCBE4CCA1B0E5AAEC59D744352
:10021000616E6E6F7420656E7465722073756264B2
:1002200069723A20004D3630300053706563696161
:100230006C204D656E753A2046696C616D656E7413
:100240004368616E676520526573756D650A00537A
:1002500070656369616C204D656E753A2046696C06
:10026000616D656E744368616E676520506175737A
:10027000650A004739310A4731205A2D302E310A9C
:10028000473930005370656369616C204D656E7548
:100290003A205A20446F776E20302E310A004739B9
:1002A000310A4731205A2D302E30320A473930007A
:1002B0005370656369616C204D656E753A205A20F4
:1002C000446F776E20302E30320A004739310A47AA
:1002D00031205A2B302E30320A47393000537065A6
:1002E0006369616C204D656E753A205A2055702007
:1002F000302E30320A004739310A4731205A2B302C
:100300002E310A473930005370656369616C204DA6
:10031000656E753A205A20557020302E310A0047FC
:100320003239205332005370656369616C204D652A
:100330006E753A204E657874204D65736820506F55
:10034000696E740A00473239205331005370656377
:1003500069616C204D656E753A205374617274202A
:100360004D657368204C6576656C696E670A004D53
:1003700031343020533630005370656369616C202E
:100380004D656E753A2050726568656174204265EE
:10039000640A004D353032005370656369616C202A
:1003A0004D656E753A204C6F616420465720446558
:1003B0006661756C74730A004D353030005370659A
:1003C0006369616C204D656E753A205361766520D6
:1003D000454550524F4D0A004D33303320452D31A5
:1003E0002053363020433620553100537065636901
:1003F000616C204D656E753A204175746F2054759F
:100400006E6520486F74626564205069640A004D0F
:1004100031303620533230340A4D333033204530BA
:10042000205332313020433135205531005370652F
:100430006369616C204D656E753A204175746F205B
:1004400054756E6520486F74656E64205049440A87
:10045000004D313038004D313038004D3234004DD0
:100460003234003C5370656369616C5F4D656E7535
:100470003E003C5370656369616C5F4D656E753E0F
:10048000002F002F002F002F2E2E0A002F2E2E00BF
:100490002F2E2E003C5370656369616C5F4D656E55
:1004A000753E0A003C5370656369616C204D656E52
:1004B000753E003C5370656369616C204D656E75D7
:1004C0003E003C46696C616D656E744368616E67A1
:1004D0006520526573756D653E003C46696C616DC3
:1004E000656E744368616E676520526573756D65EE
:1004F0003E003C46696C616D656E744368616E6771
:10050000652050617573653E003C46696C616D65A0
:100510006E744368616E67652050617573653E0057
:100520003C4C6F61642046572044656661756C746D
:10053000733E003C4C6F6164204657204465666101
:10054000756C74733E003C4175746F2054756E6514
:1005500020486F74626564205049443E003C4175F8
:10056000746F2054756E6520486F74626564205006
:1005700049443E003C4175746F2054756E652048B7
:100580006F74656E64205049443E003C4175746F41
:100590002054756E6520486F74656E642050494420
:1005A0003E003C457869743E003C457869743E00E5
:1005B0003C5361766520454550524F4D3E003C53BB
:1005C00061766520454550524F4D3E003C4E657862
:1005D00074204D65736820506F696E743E003C4E08
:1005E000657874204D65736820506F696E743E00A5
:1005F0003C5374617274204D657368204C65766558
:100600006C696E673E003C5374617274204D657373
:1006100068204C6576656C696E673E003C5072657B
:1006200068656174206265643E003C50726568656F
:100630006174206265643E003C5A20446F776E20EE
:10064000302E313E003C5A20446F776E20302E31E0
:100650003E003C5A20446F776E20302E30323E00F0
:100660003C5A20446F776E20302E30323E003C5A88
:1006700020557020302E30323E003C5A20557020DC
:10068000302E30323E003C5A20557020302E313E04
:10069000003C5A20557020302E313E005631313604
:1006A000004A333320004D3530300A4D343230208B
:1006B00053310A4731205A313020463234300A470C
:1006C00031205830205930204636303030004A3200
:1006D00032004A3232004731205A35204632343017
:1006E0000A473120583139302059323020463630CF
:1006F00030300A4731205A302046323430004731FA
:10070000205A3520463234300A47312058313930AA
:1007100020593139302046363030300A4731205A9E
:10072000302046323430004731205A3520463234AA
:10073000300A47312058313930205932302046367E
:100740003030300A4731205A3020463234300047AA
:1007500039310A4731205A313020463234300A4785
:1007600039300A4732380A4732390A47312058327D
:1007700030205932302046363030300A4731205A46
:10078000302046323430004A3032004A313200479D
:1007900031205A3130004F4B004731205A31300060
:1007A000473930004731204525694635303000470C
:1007B0003120452D302E3146256900473120453006
:1007C0002E31462569004731205A256946256900A2
:1007D0004731205A2D302E31462569004731205AA5
:1007E000302E314625690047312059256946256953
:1007F00000473120592D302E3146256900473120E0
:1008000059302E3146256900473120582569462543
:100810006900473120582D302E3146256900473177
:100820002058302E3146256900473931004732388B
:1008300000473238205A00473238205900473238B2
:100840002058004132305620004731205A313000C4
:100850004A3034004A3231004A3230004B494C4C65
:1008600045442E20004A3136004A303400454E447B
:1008700000464E20004A3032003939393A39393988
:10088000004D0048004137562000413656202D2D9E
:100890002D004A30320041365620005A3A20005985
:1008A0003A2000583A200041355600413456200085
:1008B000413356200041325620004131562000413C
:1008C000305620004D3237004D3834004739310A58
:1008D000473120452D312046313830300A473930F4
:1008E000004A3136004D313235204C32004A313821
:1008F000004A3134004A3030004A3031004A313049
:1009000000434F4D4D554E49434154494F4E0044CD
:10091000525952554E004552524F525300494E467D
:100920004F004543484F0047322F473320626164F0
:1009300020706172616D65746572730A00206F6664
:1009400020004D424C2047323920706F696E742070
:1009500000290A0059206F7574206F662072616E3D
:1009600067652028312D00290A0058206F757420F2
:100970006F662072616E67652028312D004D6573AA
:10098000682070726F62696E6720646F6E652E0AF0
:10099000005374617274206D6573682070726F62A9
:1009A000696E672077697468202247323920533195
:1009B000222066697273742E0A004732380A473261
:1009C000392053320053746174653A20004D6573C9
:1009D0006820626564206C6576656C696E67206866
:1009E0006173206E6F20646174612E0A0053206F62
:1009F0007574206F662072616E67652028302D3512
:100A0000292E0A004D65736820706F696E7420632B
:100A1000616E6E6F74206265207265736F6C7665AF
:100A2000640A004D31323500286E6F2066696C65AE
:100A300029005344207072696E74696E6720627970
:100A4000746520004E6F74205344207072696E7478
:100A5000696E670A0043757272656E742066696C10
:100A6000653A200046696C652064656C6574656450
:100A70003A0044656C6574696F6E206661696C65E7
:100A8000642C2046696C653A20005072696E7420AF
:100A900074696D653A20006F6E2E0A006F66662ECF
:100AA0000A00473236204465627567200046696C4B
:100AB000616D656E7420757365643A2000537461CE
:100AC00074733A20002C204C6F6E67657374206A33
:100AD0006F623A2000546F74616C2074696D653ADE
:100AE000200053746174733A20002C204661696CB5
:100AF00065643A20002C2046696E69736865643A23
:100B000020005072696E74733A20005374617473DC
:100B10003A200022091D0916090F0901096F6666AE
:100B20000044454255473A004D31313320530020AF
:100B30005400205200416363656C65726174696F93
:100B40006E3A2050005741524E494E4721204C6F7B
:100B500077205A204A65726B206D6179206C65613F
:100B60006420746F20756E77616E746564207061A7
:100B7000757365732E0A00546F6F2066617220666C
:100B8000726F6D207265666572656E636520706F49
:100B9000696E740A00205A00205900580020204D28
:100BA00061783A2000205A00205900580020204D3A
:100BB000696E3A20004F6E20004F666600536F66E4
:100BC0007420656E6473746F70733A200020466CF5
:100BD0006F773A20000001363726032BFFFFFF3CDA
:100BE0003D382AFFFFFFFF2E303E12FFFFFFFFFFC1
:100BF000FFFF0809FF2C071A1C18FFFFFF08440A13
:100C00002C4324221E4E6F2063617365206C69673C
:100C100068740A004F66660A00466164652048658C
:100C2000696768742000426564204C6576656C696C
:100C30006E6720004661696C656420746F20656E84
:100C400061626C6520426564204C6576656C696EF6
:100C5000670A004D65736820426564204C657665BF
:100C60006C20646174613A0A004D65736820706F8E
:100C7000696E742063616E6E6F74206265207265A8
:100C8000736F6C7665640A004D34323120696E638F
:100C90006F727265637420706172616D65746572E4
:100CA0002075736167650A00454550524F4D204FCE
:100CB0004B0A00496E736572742066696C616D65DC
:100CC0006E7420616E642073656E64204D3130381F
:100CD0000A0053656E64204D31303820746F2068EF
:100CE000656174206E6F7A7A6C650A00496E73656F
:100CF00072742066696C616D656E7420616E64202B
:100D0000707265737320627574746F6E20286F72D1
:100D1000204D313038290A00205A004475616C207A
:100D2000456E6473746F702041646A7573746D6589
:100D30006E7420286D6D293A20004D3838382063B4
:100D40006F6F6C646F776E20726F7574696E65205B
:100D5000646F6E650A004D383400546172676574C3
:100D6000206E6F7420726561636865642C207175F4
:100D70006575656420616E206172630A00556C744C
:100D800072616261736520636F6F6C646F776E2050
:100D9000737461727465640A003F4B2076616C75F0
:100DA00065206F7574206F662072616E67652028FC
:100DB000302D3130292E0A00416476616E63652042
:100DC0004B3D0041637469766520457874727564A3
:100DD00065723A2000496E76616C696420657874AA
:100DE00072756465720A00696E206D6F76655F7456
:100DF0006F282920666565645F76616C756520667D
:100E00006F722058593A002C2065793D0029202D19
:100E10003E202865783D002C2073793D0020436FEB
:100E20006E6E656374696E67207769746820766595
:100E300072746963616C206C696E65202873783DFB
:100E4000002C2065793D0029202D3E202865783D25
:100E5000002C2073793D0020436F6E6E65637469CA
:100E60006E67207769746820686F72697A6F6E7434
:100E7000616C206C696E65202873783D003F53706B
:100E80006563696669656420582C5920636F6F72C9
:100E900064696E617465206F7574206F6620626F7F
:100EA000756E64732E0A003F28522965706561745F
:100EB0002076616C7565206E6F7420706C6175733F
:100EC00069626C653B206D75737420626520617486
:100ED000206C6561737420312E0A003F2852296509
:100EE00070656174206D7573742062652073706520
:100EF000636966696564207768656E206E6F74202B
:100F00007573696E6720616E204C43442E0A003F62
:100F1000537065636966696564206E6F7A7A6C6583
:100F20002074656D7065726174757265206E6F7482
:100F300020706C61757369626C652E0A003F537096
:100F4000656369666965642066696C616D656E7468
:100F50002073697A65206E6F7420706C6175736997
:100F6000626C652E0A003F5370656369666965644B
:100F7000207072696D65206C656E677468206E6F95
:100F80007420706C61757369626C652E0A003F5045
:100F900072696D65206C656E677468206D75737419
:100FA000206265207370656369666965642077688F
:100FB000656E206E6F74207573696E6720616E2098
:100FC0004C43442E0A003F5370656369666965644B
:100FD000206E6F7A7A6C652073697A65206E6F7403
:100FE00020706C61757369626C652E0A003F496EF2
:100FF00076616C69642052657472616374696F6EA6
:101000002F556E72657472616374696F6E207261C0
:1010100074696F2E204D7573742062652077697432
:1010200068696E20356D6D2E0A0020556E726574EC
:1010300072616374696F6E20616D6F756E7420618B
:1010400075746F6D61746963616C6C79207365741C
:1010500020746F20003F5370656369666965642082
:10106000556E72657472616374696F6E206C656E23
:10107000677468206E6F7420706C61757369626C40
:10108000652E0A003F556E72657472616374696FF4
:101090006E206C656E677468206D75737420626570
:1010A000207370656369666965642E0A003F53703A
:1010B0006563696669656420526574726163746909
:1010C0006F6E206C656E677468206E6F7420706C34
:1010D00061757369626C652E0A003F5265747261B6
:1010E0006374696F6E206C656E677468206D7573CC
:1010F00074206265207370656369666965642E0A91
:10110000003F537065636966696564206C61796549
:101110007220686569676874206E6F7420706C61F6
:10112000757369626C652E0A003F5370656369666A
:10113000696564206265642074656D7065726174B0
:10114000757265206E6F7420706C61757369626C66
:1011500065202834302D31343043292E0A0047329F
:101160003620636F6D6D616E642073746172746597
:10117000642E2057616974696E6720666F722068FB
:1011800065617465722873292E0A0024F4D43050E6
:10119000C38E20C2A24017828B7011127A910D81EA
:1011A0006CD90AA861E108C7586607615143061E59
:1011B0004B5D05C145A7041A411104093D9803710F
:1011C0003931034036DB0265339102D4305402805A
:1011D0002E1D02632CEE01752AC501B028A0011056
:1011E0002781018F2564012B244B01E0223401ACBF
:1011F000211F018D200D01801FFC00841EED009732
:101200001DDF00B81CD200E61BC600201BBC00641A
:101210001AB200B219A8000A19A0006A189900D1E0
:1012200017910040178B00B516840031167E00B36D
:101230001579003A157300C7146F0058146A00EE50
:101240001366008813630025135E00C7125B006CF1
:1012500012570015125400C111510070114F002196
:10126000114B00D61049008D104700461044000273
:10127000104200C00F4000800F3E00420F3C0006AD
:101280000F3B00CB0E3800930E37005C0E35002765
:101290000E3400F30D3200C10D3100900D300060AE
:1012A0000D2E00320D2D00050D2C00D90C2B00AE9B
:1012B0000C2900850C29005C0C2700350C27000E3A
:1012C0000C2600E80B2400C40B2400A00B23007D97
:1012D0000B23005A0B2100390B2100180B2000F8BA
:1012E0000A1F00D90A1E00BB0A1E009D0A1D0080AD
:1012F0000A1D00630A1C00470A1B002C0A1B001170
:101300000A1A00F7091A00DD091900C4091900AB0F
:10131000091900920917007B091800630917004C8E
:1013200009160036091600200916000A091500F5ED
:10133000081500E0081400CC081400B8081400A434
:10134000081400900813007D0812006B0813005861
:101350000812004608120034081100230811001278
:1013600008110001081100F0071000E0071000D07C
:10137000071000C0071000B0070F00A10710009170
:10138000070E0083070F0074070F0065070E005754
:10139000070E0049070E003B070D002E070E002028
:1013A000070D0013070D0006070D00F9060C00EDF0
:1013B000060D00E0060C00D4060C00C8060C00BCAC
:1013C000060C00B0060C00A4060B0099060C008D5C
:1013D000060B0082060B0077060B006C060B006103
:1013E000060A0057060B004C060A0042060A00389F
:1013F000060A002E060A0024060A001A060A001031
:1014000006090007060A00FD050900F4050900EBBE
:10141000050900E2050900D9050900D0050900C742
:10142000050900BE050900B5050800AD050800A5C1
:101430000509009C050800940508008C0508008437
:101440000508007C050800740508006C05070065A8
:101450000508005D050700560508004E0507004712
:101460000507004005080038050700310507002A78
:10147000050700230507001C050600160507000FD9
:101480000507000805060002050700FB040600F535
:10149000040700EE040600E8040600E2040700DB8F
:1014A000040600D5040600CF040600C9040600C3E4
:1014B000040600BD040600B7040600B1040500AC34
:1014C000040600A6040600A00405009B040600957F
:1014D000040500900406008A0405008504050080C8
:1014E0000406007A04050075040500700405006B0D
:1014F00004050066040500610405005C040500574E
:10150000040500520405004D04050048040500438D
:101510000405003E0404003A0405003504050030CB
:101520000404002C04050027040400230405001E05
:101530000404001A04040016040500110404000D3C
:10154000040400090405000404040000040400FC71
:10155000030400F8030400F4030400F0030400ECA7
:10156000030400E8030400E4030400E0030400DCD7
:10157000030400D8030400D4030400D0030400CC07
:10158000030400C8030300C503030024F404D920A6
:101590001BC40C5C0E9804C4095F0265077101F45A
:1015A00005F900FB04B30048048700C10369005833
:1015B00003550003034500BE023A00840231005384
:1015C000022A002902250004022000E4011C00C8B0
:1015D000011900AF01170098011400840113007174
:1015E0000110006101100051010E0043010D003691
:1015F000010B002B010B0020010B00150109000C51
:1016000001090003010800FB000800F3000800EBDB
:10161000000700E4000600DE000600D8000600D245
:10162000000600CC000500C7000500C2000500BD93
:10163000000400B9000400B5000400B1000400ADCE
:10164000000400A9000400A5000300A20003009FFD
:101650000004009B00030098000300950002009323
:10166000000300900003008D0002008B000300883F
:101670000002008600020084000300810002007F57
:101680000002007D0002007B00020079000200776A
:101690000001007600020074000200720001007177
:1016A0000002006F0002006D0001006C0002006A81
:1016B000000100690002006700010066000100658A
:1016C000000100640002006200010061000100608E
:1016D0000001005F0002005D0001005C0001005B92
:1016E0000001005A00010059000100580001005794
:1016F0000001005600010055000100540001005394
:101700000000005300010052000100510001005090
:101710000001004F0001004E0000004E0001004D8E
:101720000001004C0001004B0000004B0001004A8A
:101730000001004900010048000000480001004786
:101740000001004600000046000100450000004581
:10175000000100440001004300000043000100427A
:101760000000004200010041000000410001004073
:101770000001003F0000003F0001003E0000003E6D
:101780000001003D0000003D0001003C0000003C65
:101790000000003C0001003B0000003B0001003A5B
:1017A0000000003A00010039000000390001003853
:1017B000000000380000003800010037000000374A
:1017C0000001003600000036000000360001003540
:1017D0000000003500000035000100340000003436
:1017E000000000340001003300000033000000332B
:1017F0000001003200000032000000320001003120
:101800000000003100000031000100300000003015
:10181000000000300001002F0000002F0000002F0A
:101820000000002F0001002E0000002E0000002EFE
:101830000001002D0000002D0000002D0000002DF3
:101840000001002C0000002C0000002C0000002CE7
:101850000001002B0000002B0000002B0000002BDB
:101860000001002A0000002A0000002A0000002ACF
:1018700000010029000000290000002900000029C3
:1018800000000029000100280000002800000028B6
:1018900000000028000000280001002700000027A9
:1018A000000000270000002700000027000100269C
:1018B0000000002600000026000000260000002690
:1018C0000001002500000025000000250000002583
:1018D0000000002500000025000100240000002475
:1018E0000000002400000024000000240001002368
:1018F000000000230000002300000023000000235C
:10190000000000230000002300010022000000224C
:10191000000000220000002200000022000000223F
:101920000001002100000021000000210000002132
:101930000000002100000021000000210001002023
:101940000000002000000020000000200000002017
:101950000000002000000020000000200001001F07
:101960000000001F0000001F0000001F0000001FFB
:101970000000001F0000001F0001001E0000001EEC
:101980000000001E0000001E000000232C0000B814
:10199000220000561800003A0F0000B8080000B1FD
:1019A000040000710200003E010000290A002062CC
:1019B000797465733B2063726320005365747469A6
:1019C0006E67732053746F726564202800290A00C3
:1019D0002062797465733B20637263200020737406
:1019E0006F7265642073657474696E6773207265C5
:1019F00074726965766564202800202863616C63D1
:101A0000756C6174656429210A0020213D20004520
:101A10004550524F4D20435243206D69736D6174A0
:101A20006368202D202873746F726564292000205C
:101A300053697A653A2000496E6465783A2000203F
:101A40004D61726C696E3D563535290A0028454551
:101A500050524F4D3D00454550524F4D20766572D6
:101A600073696F6E206D69736D61746368200048DF
:101A7000617264636F6465642044656661756C744B
:101A80002053657474696E6773204C6F616465647C
:101A90000A00D0070000D00700003C00000010271B
:101AA00000000000FA430000FA430000C0400000BC
:101AB000C8420000A0420000A0420000C8433333E7
:101AC000B9424A3135004A3132004A3137004B4978
:101AD0004C4C45442E2000202D20496E76616C69C7
:101AE00064206578747275646572206E756D6265C8
:101AF0007220210A002020506C616E6E6572427562
:101B00006666657242797465733A20002046726594
:101B100065204D656D6F72793A2000436F6D706975
:101B20006C65643A204A756C202039203230313996
:101B30000A00207C20417574686F723A20446172FB
:101B40006B5F5361726D6174206D61726C696E20A0
:101B5000416E796375626963206933204D65676101
:101B6000204D4F440A00323031392D30342D30337E
:101B700000204C61737420557064617465643A2070
:101B80000076312E342E360A004D61726C696E2D4E
:101B90004149334D00312E312E390A004D61726CAE
:101BA000696E0020536F66747761726520526573A9
:101BB00065740A00205761746368646F672052651A
:101BC0007365740A002042726F776E206F757420FF
:101BD00052657365740A002045787465726E616C95
:101BE0002052657365740A00506F77657255700AEC
:101BF0000073746172740A004D3234004D32332028
:101C00002573006175746F25692E67006572726FA8
:101C1000722077726974696E6720746F2066696CD0
:101C2000650A00205A3A0020593A0020583A0065C7
:101C30006E6473746F7073206869743A2000446F27
:101C40006E6520736176696E672066696C652E0A21
:101C5000004D323900206E6F7420656E74657265B8
:101C6000642E0A00456E642066696C65206C697399
:101C7000740A00426567696E2066696C65206C694C
:101C800073740A0050726F746563746564205069E0
:101C90006E0A006F6B004A3036004A3034004A301A
:101CA000370020573A004A3038004A303900205770
:101CB0003A00205A3A0020593A0020436F756E745A
:101CC00020583A0020453A00205A3A0020593A005C
:101CD000583A002C20002C20003A004361703A0052
:101CE000544845524D414C5F50524F54454354491E
:101CF0004F4E004155544F5245504F52545F53443C
:101D00005F53544154555300454D455247454E434A
:101D1000595F50415253455200434153455F4C492E
:101D20004748545F4252494748544E455353005424
:101D30004F47474C455F4C494748545300534F4623
:101D400054574152455F504F574552004255494CF8
:101D5000445F50455243454E54004C4556454C490E
:101D60004E475F44415441005A5F50524F42450034
:101D70004155544F4C4556454C005052494E545FC6
:101D80004A4F420050524F47524553530041555419
:101D90004F5245504F52545F54454D5000564F4C92
:101DA000554D455452494300454550524F4D0053FF
:101DB000455249414C5F584F4E5F584F464600468A
:101DC00049524D574152455F4E414D453A4D617222
:101DD0006C696E20312E312E392028476974687560
:101DE000622C20646176696472616D69726F29206A
:101DF0004D41524C494E2D4149334D5F564552534A
:101E0000494F4E3A76312E342E3620534F55524399
:101E1000455F434F44455F55524C3A687474707344
:101E20003A2F2F6769746875622E636F6D2F646136
:101E300076696472616D69726F2F4D61726C696E43
:101E40002D4149334D2050524F544F434F4C5F5614
:101E5000455253494F4E3A312E30204D4143484967
:101E60004E455F545950453A416E796375626963D6
:101E7000206933204D6567612045585452554445CB
:101E8000525F434F554E543A3120555549443A63B9
:101E9000656465326132662D343161322D343734F8
:101EA000382D396231322D6335356336326633363B
:101EB0003766660A001000C90210012C0140012299
:101EC0000170011801B0010E01F00104015002FA85
:101ED00000B002F0003003E600D003DC009004D232
:101EE000007005C800A006BE000008B400B009AA32
:101EF00000D00BA000600E960060118C00001582CF
:101F00000020197800C01D6E00A0226400B0275A7E
:101F100000902C500000314600E0343C0010383274
:101F200000903A2800603C1E00A03D1400803E0A4C
:101F300000203F0000453120544845524D414C207F
:101F400052554E415741590042454420544845524C
:101F50004D414C2052554E415741590054686572CD
:101F60006D616C2052756E61776179004531204555
:101F700072723A204D415854454D50004572723AA4
:101F8000204D415854454D5020424544004D415844
:101F900054454D50207472696767657265640045E9
:101FA00031204572723A204D494E54454D500045FE
:101FB00072723A204D494E54454D502042454400DE
:101FC0004D494E54454D502074726967676572657E
:101FD00064004D383420582059205A204500202FC5
:101FE000002042403A0020403A0000002100240036
:101FF00027002A002D0030003300010100000401F9
:1020000007010A0100002200250028002B002E00F5
:102010003100340002010000050108010B0100003D
:1020200020002300260029002C002F003200000190
:10203000000003010601090105050505070508085B
:102040000808020202020A0A080804040404010142
:102050000101010101010303030303030303040757
:1020600007070C0C0C0C0C0C0C0C020202020606EE
:102070000606060606060B0B0B0B0B0B0B0B0102E1
:10208000102020080810204010204080020102018A
:102090000804020101020408102040808040201042
:1020A000080402018004020180402010080402019B
:1020B0000804020101020408102040800102040803
:1020C0001020408000000A0B02090C0D0E080703C7
:1020D00004010000000000000000000000000000FB
:1020E00000000000000000000000000000000000F0
:1020F00012111000000000000000000000000000AD
:102100000000000000000000000002526573656ED0
:10211000643A20006F6B0020746F6F206C6F6E67E5
:1021200020657874727573696F6E2070726576655C
:102130006E7465640A0020636F6C64206578747245
:102140007573696F6E2070726576656E7465640A6A
:1021500000627573793A2070617573656420666FEB
:102160007220696E7075740A00627573793A207016
:10217000617573656420666F7220757365720A00FD
:10218000627573793A2070726F63657373696E67F5
:102190000A004A3135004B494C4C45442E20004B37
:1021A000494C4C20636175736564206279204B490A
:1021B0004C4C20627574746F6E2F70696E0A004B00
:1021C000494C4C45442E20004B494C4C20636175D2
:1021D00073656420627920746F6F206D7563682069
:1021E000696E6163746976652074696D65202D2060
:1021F00063757272656E7420636F6D6D616E643AA3
:1022000020004D3630300020746F6F206C6F6E6789
:1022100020657874727573696F6E2070726576656B
:102220006E7465640A0020636F6C64206578747254
:102230007573696F6E2070726576656E7465640A79
:10224000004572726F722077726974696E672074CC
:102250006F20454550524F4D210A00454550524F81
:102260004D206461746173697A65206572726F7262
:102270002E0A0043616E6E6F74206F70656E20735E
:102280007562646972200053442063617264206F38
:102290006B0A006F70656E526F6F74206661696CB7
:1022A00065640A00766F6C756D652E696E697420C1
:1022B0006661696C65640A004572726F723A005318
:1022C0004420696E6974206661696C0A0065636800
:1022D0006F3A004A3131005072696E74657220683D
:1022E000616C7465642E206B696C6C2829206361B5
:1022F0006C6C6564210A000000A0C00000000000B2
:1023000000000000004842000048420000804000F9
:102310000000005761726E696E673A20486F6D6900
:102320006E672042756D702044697669736F722004
:102330003C20310A000202040000A0400000A0403E
:102340000000004000005C430000574300004D4384
:10235000FFFFFF486F74656E6420746F6F20636FBA
:102360006C640A00486F74656E6420746F6F20633C
:102370006F6C640A007C3C3E5E2B3D3F2F5B5D3BF7
:102380002C2A225C0066696C616D656E74007A327D
:102390005F6D696E007A5F6D696E00795F6D696E61
:1023A00000785F6D696E005265706F7274696E6758
:1023B00020656E6473746F70207374617475730A32
:1023C000000A4D6561737572656420706F696E7483
:1023D000733A0A005A206F66667365743A20004E9D
:1023E000756D20582C593A20352C350A00FFFDFC1C
:1023F000FAF8F6F4F2F0EEECEAE9E7E5E3E1E0DE24
:10240000DCDAD9D7D5D4D2D0CFCDCBCAC8C7C5C3D3
:10241000C2C0BFBDBCBAB9B7B6B4B3B2B0AFADAC51
:10242000AAA9A8A6A5A4A2A1A09E9D9C9A999897A6
:1024300095949392908F8E8D8B8A898887868483DA
:102440008281807F7E7D7B7A7978777675747372EE
:1024500071706F6E6D6C6B6A6968676665646362E4
:1024600061605F5E5D5C5B5A5958585756555453CE
:10247000525150504F4E4D4C4B4A4A4948474646A0
:10248000454443424241403F3E3E3D3C3B3B3A395E
:10249000383837363535343332323130302F2E2E0E
:1024A0002D2C2B2B2A2929282727262525242323B1
:1024B00022212120201F1E1E1D1C1C1B1B1A191946
:1024C0001818171616151514131312121111100FD0
:1024D0000F0E0E0D0D0C0C0B0A0A09090808070750
:1024E00006060505040403030202010000000000C3
:1024F000010000000100008000555555000000401B
:102500000033333300AAAA2A004992240000002095
:1025100000C7711C0099991900D145170055551530
:10252000003BB113002449120011111100000010EA
:10253000000F0F0F00E3380E0043790D00CCCC0CD8
:1025400000C3300C00E8A20B0064210B00AAAA0A09
:1025500000703D0A009DD80900427B0900922409C1
:1025600000DCD3080088880800104208000000083A
:1025700000F0C107008787070075500700711C072E
:10258000003EEB0600A1BC060069900600666606E8
:1025900000703E06006118060017F4050074D105AE
:1025A000005BB00500B2900500627205005555054C
:1025B0000078390500B81E0500050505004EEC043D
:1025C0000087D40400A1BD040090A7040049920430
:1025D00000C17D0400EE690400C7560400444404B1
:1025E000005C3204000821040041100400000004D3
:1025F000003FF00300F8E0030026D20300C3C3034A
:1026000000CCB503003AA803000A9B0300388E03F0
:1026100000C08103009F750300D0690300505E0372
:10262000001D53030034480300913D03003333037E
:102630000016290300381F030097150300300C0310
:1026400000030303000BFA020049F10200BAE8029A
:10265000005CE002002DD802002DD0020059C80213
:1026600000B0C0020031B90200DAB10200AAAA0229
:1026700000A0A30200BC9C0200FA9502005C8F023D
:1026800000DF88020082820200457C020027760279
:102690000027700200436A02007C640200D05E02E0
:1026A000003F590200C8530200656E71756575657B
:1026B000696E672022004E6F20436865636B7375F7
:1026C0006D2077697468206C696E65206E756D6227
:1026D00065722C204C617374204C696E653A200041
:1026E0005072696E7465722073746F7070656420C7
:1026F00064756520746F206572726F72732E204648
:10270000697820746865206572726F7220616E64EA
:1027100020757365204D39393920746F20726573C7
:10272000746172742E202854656D706572617475C1
:1027300072652069732072657365742E2053657409
:1027400020697420616674657220726573746172A9
:1027500074696E67290A004E6F20436865636B7366
:10276000756D2077697468206C696E65206E756D73
:102770006265722C204C617374204C696E653A203E
:1027800000636865636B73756D206D69736D61744B
:1027900063682C204C617374204C696E653A20008C
:1027A0004C696E65204E756D626572206973206E8E
:1027B0006F74204C617374204C696E65204E756D8A
:1027C0006265722B312C204C617374204C696E65EC
:1027D0003A20004D313130004D33310053442072E6
:1027E000656164206572726F720A00446F6E6520C5
:1027F0007072696E74696E672066696C650A002084
:10280000496E76616C69642065787472756465726E
:1028100020000000A0C00000000000000000000038
:1028200057430000574300004D43486F6D696E6782
:10283000206661696C6564002F2F200020643A00D7
:1028400020693A0020703A00496E76616C69642014
:1028500065787472756465720A0043290A006162C2
:102860006C656420286D696E2074656D702000436E
:102870006F6C64206578747275646573206172652D
:10288000200023646566696E652044454641554CC9
:10289000545F4B64200023646566696E652044457F
:1028A0004641554C545F4B69200023646566696E50
:1028B000652044454641554C545F4B7020005049BB
:1028C00044204175746F74756E652066696E697316
:1028D000686564212050757420746865206C61738C
:1028E00074204B702C204B6920616E64204B642057
:1028F000636F6E7374616E74732066726F6D2062A5
:10290000656C6F7720696E746F20436F6E666967C0
:1029100075726174696F6E2E680A005049442041D7
:1029200075746F74756E65206661696C65642120CD
:1029300074696D656F75740A0045312054484552BD
:102940004D414C2052554E415741590054686572D3
:102950006D616C2052756E61776179004531204858
:10296000656174696E67206661696C6564004865BD
:102970006174696E67206661696C656400504944E2
:10298000204175746F74756E65206661696C65644D
:10299000212054656D706572617475726520746F65
:1029A0006F20686967680A00204B643A2000204B5A
:1029B000693A2000204B703A20000A20436C617372
:1029C00073696320504944200A002054753A20005E
:1029D000204B753A2000206D61783A2000206D6907
:1029E0006E3A200020643A200020626961733A2028
:1029F00000504944204175746F74756E652066619E
:102A0000696C6564212054656D70657261747572BE
:102A10006520746F6F20686967680A005049442018
:102A20004175746F74756E652073746172740A00F9
:102A3000504944204175746F74756E6520666169F4
:102A40006C656421204261642065787472756465E8
:102A500072206E756D6265720A004A3233004D3223
:102A6000350047393000473120452D332046313875
:102A70003030004739310057726974696E672074CD
:102A80006F2066696C653A20006F70656E20666124
:102A9000696C65642C2046696C653A20006F70652E
:102AA0006E206661696C65642C2046696C653A200D
:102AB0000046696C652073656C65637465640A0023
:102AC0002053697A653A200046696C65206F70650D
:102AD0006E65643A20002066696C653A2000646F78
:102AE000696E67006672657368004E6F77200045F7
:102AF0004E4420535542524F5554494E450A0022E8
:102B000020706F73002220706172656E743A22002B
:102B1000535542524F5554494E452043414C4C2049
:102B20007461726765743A22004B494C4C45442EDF
:102B30002000747279696E6720746F2063616C6C19
:102B4000207375622D67636F64652066696C6573B9
:102B5000207769746820746F6F206D616E79206CC6
:102B60006576656C732E204D4158206C6576656CDA
:102B70002069733A006F70656E206661696C6564E8
:102B80002C2046696C653A200020286D6D290020B4
:102B9000204D36303320002055004C0046696C61D2
:102BA0006D656E74206C6F61642F756E6C6F6164FF
:102BB000206C656E677468733A0A0020204D3930C6
:102BC00030204B004C696E65617220416476616E05
:102BD00063653A0A0020440020490020204D33302C
:102BE000312050005049442073657474696E6773D6
:102BF0003A0A00205A0020204D36363600456E64D1
:102C000073746F702061646A7573746D656E743A65
:102C10000A00205A0020590020204732392053331F
:102C2000205800205A0020204D3432302053004DCF
:102C300065736820426564204C6576656C696E67D3
:102C40003A0A00205A0020590020204D3230362008
:102C50005800486F6D65206F66667365743A0A00A8
:102C6000204500205A002059002058002054002000
:102C7000530020204D32303520510020453C6D61FD
:102C8000785F655F6A65726B3E0020583C6D6178C5
:102C90005F785F6A65726B3E20593C6D61785F7941
:102CA0005F6A65726B3E205A3C6D61785F7A5F6A3D
:102CB00065726B3E00416476616E6365643A2051D3
:102CC0003C6D696E5F7365676D656E745F74696D89
:102CD000655F75733E20533C6D696E5F6665656424
:102CE000726174653E20543C6D696E5F74726176EA
:102CF000656C5F66656564726174653E00205400B2
:102D000020520020204D3230342050004163636552
:102D10006C65726174696F6E2028756E6974732FAB
:102D20007332293A20503C7072696E745F6163633C
:102D3000656C3E20523C726574726163745F6163BE
:102D400063656C3E20543C74726176656C5F6163B0
:102D500063656C3E0A00204500205A00205900207F
:102D6000204D3230312058004D6178696D756D20ED
:102D7000416363656C65726174696F6E2028756E5E
:102D80006974732F7332293A0A00204500205A00D3
:102D900020590020204D3230332058004D61786991
:102DA0006D756D2066656564726174657320287544
:102DB0006E6974732F73293A0A00204500205A0067
:102DC00020590020204D393220580053746570730B
:102DD0002070657220756E69743A0A0020204D32A9
:102DE00030302044300A0020204D32303020440062
:102DF0002044697361626C65640A0046696C616DA8
:102E0000656E742073657474696E67733A00202070
:102E1000473231202020203B005452494747455239
:102E20004544006F70656E003A20002569730025E7
:102E3000696D20256973002569682025696D202545
:102E4000697300256964202569682025696D20253E
:102E50006973002569792025696420256968202522
:102E6000696D20256973002CFFFFFFFFFF00010142
:102E70000101016265640A002C2073797374656D29
:102E80002073746F70706564212048656174657289
:102E90005F49443A20004265642068656174696E48
:102EA00067206661696C65640048656174696E6776
:102EB000206661696C65640045312048656174690C
:102EC0006E67206661696C65640048656174696E4F
:102ED00067206661696C6564004B494C4C45442E23
:102EE000200070012C0190012701B0012201C001D6
:102EF0001D01F00118011002130130020E016002E1
:102F0000090190020401C002FF000003FA0040031F
:102F1000F5008003F000D003EB002004E60070040D
:102F2000E100E004DC004005D700C005D200400607
:102F3000CD00D006C8008007C3003008BE00F008EE
:102F4000B900C009B400B00AAF00B00BAA00D00CA1
:102F5000A500000EA000500F9B00C010960050125C
:102F6000910000148C00C0158700B0178200B019C2
:102F70007D00D01B7800001E730040206E00902260
:102F80006900F024640040275F0090295A00E02B7C
:102F90005500102E500020304B0010324600E03318
:102FA000410090353C001037370070383200A039AE
:102FB0002D00B03A2800A03B2300603C1E00103DCD
:102FC0001900903D1400103E0F00703E0A00C03EF4
:102FD0000500003F0000403FFBFF803FF6FFC03F81
:102FE000F1FF556E6B6E6F776E20636F6D6D616E66
:102FF000643A202200496E736572742066696C61C0
:103000006D656E7420616E642070726573732062EA
:103010007574746F6E20286F72204D313038290A14
:10302000002066697273740A005A005900580048FB
:103030006F6D6520000000EBBBEC11241FBECFEFCD
:10304000D1E2DEBFCDBF00E00CBF14E0A0E0B2E0F3
:10305000E6EDF4EF01E00BBF02C007900D92A03344
:10306000B107D9F72CE1A0E3B4E001C01D92A0376D
:10307000B207E1F718E1CCE1D8E100E006C0219702
:103080000109802FFE010E94C3F9CB31D10780E0F6
:103090000807A9F70E94D4E40C945AFA0C94000093
:1030A0002F923F924F925F926F927F928F929F9258
:1030B000AF92BF92CF92DF92EF92FF920F931F9346
:1030C000CF93DF93CDB7DEB7A7970FB6F894DEBFE7
:1030D0000FBECDBFC0905804D0905904E0905A0460
:1030E000F0905B0420E030E040EA50E4C701B60114
:1030F0000E945DF287FD42C120E030E041E953E4E7
:10310000C701B6010E94EDF818160CF437C11092F1
:103110004812109247128091090140914612042EE4
:10312000000C550B817021E0822790E04817590769
:1031300009F433C08091090181708227809346127F
:103140008823D9F00E9489A6E5EFF8E084918F01E9
:10315000882351F0082E000C990B0E9484A60F5F63
:103160001F4FF8018491F4CF8DE090E00E9484A677
:103170008AE090E00E9484A610C0E9EFF8E0849114
:103180008F01882389F3082E000C990B0E9484A6D6
:103190000F5F1F4FF8018491F4CF8091AD10833001
:1031A000C1F12CF4882369F08130F1F0ACC0843097
:1031B00059F1853009F0A7C0E1EEF8E084918F0164
:1031C00069C080912A0E882309F49DC081E0809314
:1031D000AD100E943C7860933D1270933E12809334
:1031E0003F12909340128FC080912A0E81118BC0A4
:1031F0008091F60F882311F082E049C08091AE10D3
:10320000882309F4E6C07FC0809187128823A1F348
:103210007AC0EDEEF8E084918F01882351F0082EFA
:10322000000C990B0E9484A60F5F1F4FF801849138
:10323000F4CF8DE090E00E9484A68AE090E00E94A6
:1032400084A680912A0E81115EC08091AC0D909170
:10325000AD0D891B8F7009F056C08091AE10823081
:1032600088F411E01093AE108091491281110AC0C8
:1032700085EE98E09093BD148093BC140E94D4BC5A
:1032800010934912809187128111B6CF84E0809308
:10329000AD1039C0882351F0082E000C990B0E9404
:1032A00084A60F5F1F4FF8018491F4CF8DE090E06A
:1032B0000E9484A68AE090E00E9484A690912A0E43
:1032C000911108C08091AC0D2091AD0D821B8F70C3
:1032D00009F492C080914912811115C0911113C057
:1032E0008091AC0D9091AD0D891B8F7009F489C050
:1032F0000AC08DE090E00E9484A68AE090E00E94DF
:1033000084A61092AE1080912F12909130120397E4
:10331000E4F080912F1290913012009711F40C94E8
:103320000B2A01979093301280932F1280913112C3
:1033300090913212019664E070E00E94B0F990938F
:103340003212809331120C940B2A8CE8282E84E0E0
:10335000382E90E6492E9AEE592E612C712C82E976
:1033600093E10E94C642181619069CF680912F120E
:103370009091301204970CF4B9C0CBCF80914712D2
:10338000909148128136FAEE9F07E8F010924812A9
:1033900010924712EDEFF8E084918F01882351F0ED
:1033A000082E000C990B0E9484A60F5F1F4FF80196
:1033B0008491F4CF8DE090E00E9484A68AE090E0B2
:1033C0000E9484A6A8CE019690934812809347123B
:1033D000A2CE1092AD10E1EFF8E084918F01882326
:1033E00009F487CF082E000C990B0E9484A60F5F6A
:1033F0001F4FF8018491F3CF1092AD101092AE10D0
:1034000069CF8CEC98E09093BD148093BC140E941B
:10341000D4BC0E94EEE2811153C080E090E0A0EAAB
:10342000B0E488A399A3AAA3BBA320E030E048ECB2
:1034300051E4609150047091510480915204909134
:1034400053040E94C7F66B017C0120E030E04DE49C
:1034500053E40E945DF287FD06C0C12CD12CADE47F
:10346000EA2EA3E4FA2EC982DA82EB82FC82BE0144
:10347000605E7F4FCE0101960E940CBC80E090E020
:10348000A8ECB2E48CA39DA3AEA3BFA380E090E020
:10349000ADE4B3E488A399A3AAA3BBA380E090E022
:1034A000A0EAB0E489839A83AB83BC83AE014C5D10
:1034B0005F4FBE01605E7F4FCE0101960E94EBBB65
:1034C00088EC98E09093BD148093BC140E94D4BC07
:1034D00084EC98E09093BD148093BC140E94D4BCFB
:1034E0001092AE1081E0809349120DCF82E993E1F2
:1034F0000E948A4280933512209136123091371201
:103500008A3049F08D3039F08A3329F02F35310572
:1035100014F40C94E1272115310509F4FACE8091B9
:1035200033129091341240E6489F8001499F100D5C
:103530001124C80183559F4EFC01E20FF31F128234
:10354000980121553F4E790161E470E0C9010E9464
:1035500017FA009711F40C94C527909339128093B1
:1035600038128E199F09800F911F60E070E080551E
:103570009F4E0E9423EE0E940BF8CB01770FAA0BFF
:10358000BB0B8232910510F00C94C527FC018827F3
:10359000EE58FF4F8F4F0C94C3F9EFEBF8E0849196
:1035A0008F01882351F0082E000C990B0E9484A6ED
:1035B0000F5F1F4FF8018491F4CF20E030E040E02E
:1035C0005FE3609158047091590480915A0490917E
:1035D0005B041EC0EAEBF8E084918F01882351F070
:1035E000082E000C990B0E9484A60F5F1F4FF80154
:1035F0008491F4CF6091460470914704072E000C2B
:10360000880B990B0E9463F220E030E040E05FE31A
:103610000E94C7F60E940BF8CB010E94D8530E946B
:10362000E4CA8DE090E00E9484A68AE090E00E94C7
:1036300084A60C94C527E5EBF8E084918F018823DC
:1036400051F0082E000C990B0E9484A60F5F1F4FAB
:10365000F8018491F4CF20E030E040E05FE3609136
:103660004204709143048091440490914504D0CF6A
:10367000E0EBF8E084918F01882351F0082E000CD4
:10368000990B0E9484A60F5F1F4FF8018491F4CF1D
:103690006091400470914104B1CF20919B0B309117
:1036A0009C0B44E6429FC001439F900D11246FEF95
:1036B00070E00E94B0F97B016536710518F0F4E600
:1036C000EF2EF12CEBEAF8E084918F01882351F082
:1036D000082E000C990B0E9484A60F5F1F4FF80163
:1036E0008491F4CFB70180E090E00C940A24E7EADB
:1036F000F8E084918F01882351F0082E000C990B7B
:103700000E9484A60F5F1F4FF8018491F4CF80E2DE
:1037100090E00E9484A6E3EAF8E084918F01882378
:1037200051F0082E000C990B0E9484A60F5F1F4FCA
:10373000F8018491F4CF609148047091490480911C
:103740004A0490914B040E94E5CA80E290E00E94F6
:1037500084A6EFE9F8E084918F01882351F0082EC8
:10376000000C990B0E9484A60F5F1F4FF8018491F3
:10377000F4CF60914C0470914D0480914E0490916F
:103780004F040E94E5CA80E290E00E9484A6EBE923
:10379000F8E084918F01882351F0082E000C990BDA
:1037A0000E9484A60F5F1F4FF8018491F4CF6091AF
:1037B00050047091510480915204909153040E94DE
:1037C000E5CA80E290E0EAC680912A0E882309F4D7
:1037D00050C0E6E9F8E084918F01882351F0082E6B
:1037E000000C990B0E9484A60F5F1F4FF801849173
:1037F000F4CF80912B0E882359F18091F60F882306
:1038000029F18091A0109091A110A091A210B091E7
:10381000A3100097A105B105C1F0BC01CD016D5900
:103820007F4F8F4F9F4F24E630E040E050E00E94F2
:1038300069F66091A4107091A5108091A6109091E6
:10384000A7100E9469F6822F01C080E090E0E5CECB
:10385000E2E9F8E084918F01882309F4E2CE082E92
:10386000000C990B0E9484A60F5F1F4FF8018491F2
:10387000F3CFEAE8F8E084918F01882309F4D1CEF0
:10388000082E000C990B0E9484A60F5F1F4FF801B1
:103890008491F3CFE5E8F8E084918F01882351F01B
:1038A000082E000C990B0E9484A60F5F1F4FF80191
:1038B0008491F4CF80913D1290913E12A0913F12DD
:1038C000B0914012892B8A2B8B2B09F47DC00E946A
:1038D0003C78A30192010E9469F669017A01609126
:1038E0003D1270913E1280913F1290914012A301BF
:1038F00092010E9469F68601021B130BC8016CE35A
:1039000070E00E949CF9CB0199272AE030E0B901D0
:103910000E94B0F9482FCB01B9010E94B0F9805D37
:1039200080933604405D409337041092380486E358
:1039300094E00E94E4CA80E290E00E9484A6E3E85A
:10394000F8E084917F01882359F0082E000C990B30
:103950000E9484A6FFEFEF1AFF0AF7018491F3CFCC
:1039600080E290E00E9484A6C8016CE370E00E94AF
:103970009CF9EAE0F0E0BF010E94B0F9282FCB01EA
:10398000BF010E94B0F9805D80933604205D2093D2
:1039900037041092380486E394E00E94E4CA80E27F
:1039A00090E00E9484A6E1E8F8E084918F018823EA
:1039B00009F437CE082E000C990B0E9484A60F5FE5
:1039C0001F4FF8018491F3CF80E290E00E9484A61B
:1039D000E9E7F8E084918F01882309F422CE082ECC
:1039E000000C990B0E9484A60F5F1F4FF801849171
:1039F000F3CF109268128091090180FF11C0E5E7B2
:103A0000F8E084918F01882309F40BCE082E000C76
:103A1000990B0E9484A60F5F1F4FF8018491F3CF8A
:103A200083E50E9475CA882341F00E9490CA0E94D3
:103A300010F870933C1260933B12E1E7F8E0849138
:103A40008F01882351F0082E000C990B0E9484A648
:103A50000F5F1F4FF8018491F4CF8DE090E00E943A
:103A600084A68AE090E00E9484A680918612882332
:103A700009F4A1C280913B1290913C1284309105CF
:103A800009F4D2C040F4892B09F04DC4E1E9F6E015
:103A900084918F010CC08830910509F47EC10C9788
:103AA00009F041C4E9E0F5E084918F012FC2882339
:103AB00051F0082E000C990B0E9484A60F5F1F4F37
:103AC000F8018491F4CF8DE090E00E9484A68AE012
:103AD00090E00E9484A6E6E8F6E084918F018823B6
:103AE00051F0082E000C990B0E9484A60F5F1F4F07
:103AF000F8018491F4CF8DE090E00E9484A68AE0E2
:103B000090E00E9484A6EAE7F6E084918F01882382
:103B100051F0082E000C990B0E9484A60F5F1F4FD6
:103B2000F8018491F4CF8DE090E00E9484A68AE0B1
:103B300090E00E9484A6EEE6F6E084918F0188234F
:103B400051F0082E000C990B0E9484A60F5F1F4FA6
:103B5000F8018491F4CF8DE090E00E9484A68AE081
:103B600090E00E9484A6E0E6F6E084918F0188232D
:103B700051F0082E000C990B0E9484A60F5F1F4F76
:103B8000F8018491F4CF8DE090E00E9484A68AE051
:103B900090E00E9484A6E2E5F6E084918F018823FC
:103BA00051F0082E000C990B0E9484A60F5F1F4F46
:103BB000F8018491F4CF8DE090E00E9484A68AE021
:103BC00090E00E9484A6E5E4F6E084918F018823CA
:103BD00051F0082E000C990B0E9484A60F5F1F4F16
:103BE000F8018491F4CF8DE090E00E9484A68AE0F1
:103BF00090E00E9484A6E8E3F6E084918F01882398
:103C000051F0082E000C990B0E9484A60F5F1F4FE5
:103C1000F8018491F4CF8DE090E00E9484A68AE0C0
:103C200090E00E9484A67FC3EAE2F6E084918F01CF
:103C3000882351F0082E000C990B0E9484A60F5F78
:103C40001F4FF8018491F4CF8DE090E00E9484A68C
:103C50008AE090E00E9484A6ECE1F6E084918F0176
:103C6000882351F0082E000C990B0E9484A60F5F48
:103C70001F4FF8018491F4CF8DE090E00E9484A65C
:103C80008AE090E00E9484A6E6E0F6E084918F014D
:103C9000882351F0082E000C990B0E9484A60F5F18
:103CA0001F4FF8018491F4CF8DE090E00E9484A62C
:103CB0008AE090E00E9484A6E0EFF5E084918F0115
:103CC000882351F0082E000C990B0E9484A60F5FE8
:103CD0001F4FF8018491F4CF8DE090E00E9484A6FC
:103CE0008AE090E00E9484A6EEEDF5E084918F01D9
:103CF000882351F0082E000C990B0E9484A60F5FB8
:103D00001F4FF8018491F4CF8DE090E00E9484A6CB
:103D10008AE090E00E9484A6ECECF5E084918F01AB
:103D2000882351F0082E000C990B0E9484A60F5F87
:103D30001F4FF8018491F4CF8DE090E00E9484A69B
:103D40008AE090E00E9484A6EEEBF5E084918F017A
:103D5000882351F0082E000C990B0E9484A60F5F57
:103D60001F4FF8018491F4CF8DE090E00E9484A66B
:103D70008AE090E00E9484A6E0EBF5E084918F0158
:103D8000882309F448CF082E000C990B0E9484A6C2
:103D90000F5F1F4FF8018491F3CFE9EAF5E08491BA
:103DA0008F01882351F0082E000C990B0E9484A6E5
:103DB0000F5F1F4FF8018491F4CF8DE090E00E94D7
:103DC00084A68AE090E00E9484A6E2EAF5E084916D
:103DD0008F01882351F0082E000C990B0E9484A6B5
:103DE0000F5F1F4FF8018491F4CF8DE090E00E94A7
:103DF00084A68AE090E00E9484A6EBE8F5E0849136
:103E00008F01882351F0082E000C990B0E9484A684
:103E10000F5F1F4FF8018491F4CF8DE090E00E9476
:103E200084A68AE090E00E9484A6E4E7F5E084910D
:103E30008F01882351F0082E000C990B0E9484A654
:103E40000F5F1F4FF8018491F4CF8DE090E00E9446
:103E500084A68AE090E00E9484A6EDE5F5E08491D6
:103E60008F01882351F0082E000C990B0E9484A624
:103E70000F5F1F4FF8018491F4CF8DE090E00E9416
:103E800084A68AE090E00E9484A6E6E4F5E08491AE
:103E90008F01882351F0082E000C990B0E9484A6F4
:103EA0000F5F1F4FF8018491F4CF8DE090E00E94E6
:103EB00084A68AE090E00E9484A6E3E3F5E0849182
:103EC0008F01882351F0082E000C990B0E9484A6C4
:103ED0000F5F1F4FF8018491F4CF8DE090E00E94B6
:103EE00084A68AE090E00E9484A6E0E2F5E0849156
:103EF0008F01882309F48FCE082E000C990B0E94A5
:103F000084A60F5F1F4FF8018491F3CF882351F0EF
:103F1000082E000C990B0E9484A60F5F1F4FF8011A
:103F20008491F4CF8DE090E00E9484A68AE090E036
:103F30000E9484A6E2EFF4E084918F01882351F07F
:103F4000082E000C990B0E9484A60F5F1F4FF801EA
:103F50008491F4CF8DE090E00E9484A68AE090E006
:103F60000E9484A6EAEDF4E084918F01882351F049
:103F7000082E000C990B0E9484A60F5F1F4FF801BA
:103F80008491F4CF8DE090E00E9484A68AE090E0D6
:103F90000E9484A6E2ECF4E084918F01882309F466
:103FA0003ACE082E000C990B0E9484A60F5F1F4F7B
:103FB000F8018491F3CF80912B0E882309F48AC1F4
:103FC00081E08093A8101092AA101092A91040E0EE
:103FD00050E0BA018AE79EE00E94369F8BE1EAE753
:103FE000FEE0DE01159601900D928A95E1F7809131
:103FF000780E9091790E9C838B838DEE92E09A835C
:10400000898340E050E0BE016F5F7F4F80E090E029
:104010000E9474A8CE0101960E9472B1C090A910AE
:10402000D090AA1000913B1210913C12C601801B47
:10403000910B049720F06801F3E0CF0ED11C73EBD5
:10404000872E74E0972EE4EAAE2EE4E0BE2EC01672
:10405000D10608F468C10115110509F0A1C06EE28E
:104060007EE08AE79EE00E9468AB63E173E08EE247
:104070009EE00E9422FA892B09F04AC0F401849143
:1040800063EBE62E64E0F62E882359F0082E000C30
:10409000990B0E9484A6FFEFEF1AFF0AF7018491A3
:1040A000F3CF8DE090E00E9484A68AE090E00E9429
:1040B00084A6F501849154EAE52E54E0F52E882378
:1040C00059F0082E000C990B0E9484A6FFEFEF1AFE
:1040D000FF0AF7018491F3CF8DE090E00E9484A65F
:1040E0008AE090E00E9484A64AE060E070E0CB01A4
:1040F0000E9432D6E4E9F4E084917F012FEFE21AC6
:10410000F20A882309F4E3C00E94DFD5F701F4CF57
:10411000E0E9F4E084917F01882359F0082E000C37
:10412000990B0E9484A6FFEFEF1AFF0AF701849112
:10413000F3CF8DE090E00E9484A68AE090E00E9498
:1041400084A6F10184914CE8E42E44E0F42E882307
:1041500059F0082E000C990B0E9484A6FFEFEF1A6D
:10416000FF0AF7018491F3CF8DE090E00E9484A6CE
:104170008AE090E00E9484A64AE060E070E0CB0113
:104180000E9432D6E7E8F4E084917F012FEFE21A33
:10419000F20A882309F49BC00E94DFD5F701F4CF0F
:1041A00060E070E0C80101970E94C6C680912C0EA5
:1041B000882309F460C0E5E8F4E084917F01882356
:1041C00059F0082E000C990B0E9484A6FFEFEF1AFD
:1041D000FF0AF7018491F3CF8EE29EE00E94E4CAC9
:1041E0008DE090E00E9484A68AE090E00E9484A680
:1041F000E3E8F4E084917F01882359F0082E000C55
:10420000990B0E9484A6FFEFEF1AFF0AF701849131
:10421000F3CF8BE39EE00E94E4CA8DE090E00E9421
:1042200084A68AE090E00E9484A6C801A0E0B0E0E5
:104230004AE0BC01CD010E9432D6E1E8F4E084916D
:104240007F012FEFE21AF20A811105C03BE3E32E52
:104250003EE0F32E04C00E94DFD5F701F0CFF70156
:1042600081917F01882319F00E94DFD5F8CF8AE081
:104270000E94DFD52CC08EE29EE00E94E4CA8DE051
:1042800090E00E9484A68AE090E00E9484A68BE3DE
:104290009EE00E94E4CA8DE090E00E9484A68AE03D
:1042A00090E00E9484A6C801A0E0B0E04AE0BC0112
:1042B000CD010E9432D62BE3E22E2EE0F22EF70142
:1042C00081917F01882399F20E94DFD5F8CF0F5F9B
:1042D0001F4FBDCEE2E7F4E084918F01882351F0B7
:1042E000082E000C990B0E9484A60F5F1F4FF80147
:1042F0008491F4CF8DE090E00E9484A68AE090E063
:104300000E9484A6E3E6F4E084918F01882309F4F7
:1043100082CC082E000C990B0E9484A60F5F1F4FC1
:10432000F8018491F3CFEDE6F8E084918F018823C2
:1043300009F477C9082E000C990B0E9484A60F5F20
:104340001F4FF8018491F3CF80912A0E882319F032
:104350000E94D6C91AC61092AE10B0C08091AD109E
:10436000823019F0833609F076C01091AE10123009
:10437000C1F1F0F4112329F1113009F054C08BE59B
:1043800094E09093BD148093BC140E94D4BC10920E
:1043900049120E943C7860933D1270933E128093C4
:1043A0003F12909340120E947CA61093AD1032C031
:1043B000143099F128F11530B1F583E08093AD10F8
:1043C00030C00E943C7860933D1270933E128093FF
:1043D0003F12909340120E947CA681E08093AD1022
:1043E00022C086E594E09093BD148093BC140E9493
:1043F000D4BC10923302109235040E947CA60AC0ED
:104400008FE594E09093BD148093BC140E94D4BCBB
:10441000109249121092AE1006C083E08093AD1046
:1044200082E08093AE10E9E6F8E084918F01882362
:1044300051F0082E000C990B0E9484A60F5F1F4FAD
:10444000F8018491F4CF8DE090E00E9484A68AE088
:1044500090E00E9484A680913F04882309F495C5CA
:1044600081E594E09093BD148093BC140E94D4BC69
:1044700010923104109232041092330410923404DA
:104480001092300480E00E94B57C10923F0410929C
:104490003504109233028091AE10843018F08250AF
:1044A0008093AE1083E08093AD106FC580912A0E8B
:1044B000811104C08091AD10833619F40E94C9A700
:1044C00064C5E5E6F8E084918F01882351F0082E59
:1044D000000C990B0E9484A60F5F1F4FF801849176
:1044E000F4CF8DE090E00E9484A68AE090E00E94E4
:1044F00084A61092AD101092AE1047C58CE598E0DE
:104500000E947AB18091AD10833609F43EC50091C6
:104510003812109139127801F4E0EF0EF11C6AE2C2
:1045200070E0C7010E9417FAF80124812F3221F4AC
:10453000B8016B5F7F4F03C02C3331F4B70188E6BD
:1045400092E10E942BFA6DC810926812009719F040
:10455000FC0131971082809138129091391240E01D
:1045600061E004960E94C3C78091F60F8823C9F0CA
:10457000E8E5F8E084918F01882351F0082E000CC3
:10458000990B0E9484A60F5F1F4FF8018491F4CF0E
:104590008DE090E00E9484A68AE090E00E9484A6CC
:1045A00040C8E4E5F8E084918F01882389F3082E60
:1045B000000C990B0E9484A60F5F1F4FF801849195
:1045C000F4CF8091AC0D9091AD0D891B8F7009F0E7
:1045D000DCC48091AD10823009F4D7C4833609F46D
:1045E000D4C48091F60F811105C5CFC483E50E9424
:1045F00075CA811126C083E40E9475CA882309F414
:10460000C4C48091AC0D9091AD0D891B8F7009F0E1
:10461000BCC420E030E040E251E46091500470916D
:10462000510480915204909153040E945DF287FFDF
:1046300008C089E498E09093BD148093BC140E9454
:10464000D4BC0E9490CA20E030E0A9010E945DF233
:1046500087FD10C00E9490CA20E030E849E853E48A
:104660000E94EDF818164CF00E9490CA0E9410F8B3
:10467000CB0105C080E090E002C083E191E00E94A0
:10468000C75383C483E50E9475CA882309F47DC497
:104690000E9490CA20E030E0A9010E945DF287FDEF
:1046A00010C00E9490CA20E030E046E153E40E942E
:1046B000EDF818164CF00E9490CA0E9410F8CB0139
:1046C00005C080E090E002C086E990E00E94A74625
:1046D0005CC483E50E9475CA8823E1F00E9490CAF9
:1046E00020E030E04FE753E40E94C2F220E030E0E7
:1046F00048EC52E40E94A3F70E9410F86F3F710546
:1047000019F010F06FEF70E070939C0B60939B0BAF
:104710000C94111B8FEF90E090939C0B80939B0B5C
:104720000C94111B8091AC0D9091AD0D891B8F7075
:1047300011F00C94111B80912A0E81110C94111B05
:104740000E94B1BF5F9A80913E048E7F80933E04A9
:104750008A9A479A80913E048D7F80933E0480918F
:1047600008018095817080930601479A80913E04EC
:104770008B7F80933E04129A0C94111B83E50E9458
:1047800075CA882319F10E9490CA20E030E040E207
:1047900052E40E945DF287FD0FC00E9490CA20E0A3
:1047A00030EC49E754E40E94EDF8181644F00E94FA
:1047B00090CA0E940BF805C068E270E002C067EE84
:1047C00073E07093010260930002DFC3E3E4F8E05A
:1047D00084918F01882351F0082E000C990B0E94C0
:1047E00084A60F5F1F4FF8018491F4CFC0900002A0
:1047F000D09001020D2C000CEE08FF08F7FE0CC053
:104800008DE20E94D9CA66277727CB016C197D09F2
:104810008E099F094AE003C04AE0C701B6010E9421
:1048200099CA0C94111B8091AC0D9091AD0D891B10
:104830008F7009F0AAC38091AD10823009F4A5C32E
:10484000833609F070C3A1C38091AC0D9091AD0D7A
:10485000891B8F7011F00C94111B8091AD10823068
:1048600011F40C94111B833609F0F7C30C94111B3F
:104870008091AC0D9091AD0D891B8F7009F085C3AF
:104880008091AD10823009F480C3833609F03BC5B6
:104890007CC38091AC0D9091AD0D891B8F7009F098
:1048A00074C38091AD10823009F46FC3833609F070
:1048B00060C56BC38091AC0D9091AD0D891B8F705D
:1048C00009F063C38091AD10823009F45EC3833672
:1048D00009F085C55AC380916812811103C00E94F6
:1048E00089A646C28E3271F5809169128E3209F026
:1048F000C7C18091CB0F882309F43AC281508093BD
:10490000CB0F882361F090E001974FE1489F900121
:10491000499F300D1124C9018B56914F02C087E584
:104920009EE02BE1FC013496AAE7BEE001900D92D7
:104930002A95E1F7FC01828193819093790E80930F
:10494000780E16C28C3309F09BC165E173E088E6EE
:1049500092E10E9422FA892B21F481E08093861251
:1049600007C264E273E088E692E10E9422FA892B92
:1049700079F4EDE2F4E084918F010F5F1F4F8823FB
:1049800021F00E94DFD5F801F6CF8FE094E01FC13F
:104990006BE373E088E692E10E9422FA892B79F4B6
:1049A000EBEEF3E084918F010F5F1F4F882321F01E
:1049B0000E94DFD5F801F6CF88ED93E008C162E5EB
:1049C00073E088E692E10E9422FA892B31F5EDEB43
:1049D000F3E084918F010F5F1F4F882321F00E9425
:1049E000DFD5F801F6CF88EB93E09093BD14809368
:1049F000BC140E94D4BC84E594E099A388A389E602
:104A000090E09A838983BE01605E7F4FCE0101965C
:104A10000E94A2C98DE796E02DC060E673E088E6AB
:104A200092E10E9422FA892B99F5E8E9F3E084915A
:104A30008F010F5F1F4F882321F00E94DFD5F801FF
:104A4000F6CF83E993E09093BD148093BC140E9449
:104A5000D4BC8DE796E099A388A389E690E09A8379
:104A60008983BE01605E7F4FCE0101960E94A2C97C
:104A700084E594E099A388A382ED90E09A838983EA
:104A8000BE01605E7F4FCE0101960E94A2C970C137
:104A900063E773E088E692E10E9422FA892B79F4B9
:104AA000E8E7F3E084918F010F5F1F4F882321F027
:104AB0000E94DFD5F801F6CF8FE693E088C061E869
:104AC00073E088E692E10E9422FA892B71F40CE4EB
:104AD00013E0F8018491882329F00F5F1F4F0E9493
:104AE000DFD5F7CF85E493E072C067E973E088E62D
:104AF00092E10E9422FA892B79F4E6E2F3E08491B4
:104B00008F010F5F1F4F882321F00E94DFD5F8012E
:104B1000F6CF8FE193E05BC069EA73E088E692E14B
:104B20000E9422FA892B79F4E7E0F3E084918F0167
:104B30000F5F1F4F882321F00E94DFD5F801F6CFC9
:104B400086EF92E044C064EB73E088E692E10E9455
:104B500022FA892B79F4EDEDF2E084918F010F5F59
:104B60001F4F882321F00E94DFD5F801F6CF8BEC90
:104B700092E02DC060EC73E088E692E10E9422FA98
:104B8000892B79F4E0EBF2E084918F010F5F1F4FE6
:104B9000882321F00E94DFD5F801F6CF8EE992E05C
:104BA00016C06EEC73E088E692E10E9422FA892B2F
:104BB000A9F4E4E8F2E084918F010F5F1F4F88238E
:104BC00021F00E94DFD5F801F6CF83E792E09093C1
:104BD000BD148093BC140E94D4BCCAC06BED73E0BA
:104BE00088E692E10E9422FA892BD9F4EFE4F2E000
:104BF00084918F010F5F1F4F882321F00E94DFD522
:104C0000F801F6CF82E08093AE1085E292E09093B7
:104C1000BD148093BC140E94D4BC83E08093AD107B
:104C2000A7C062EF73E088E692E10E9422FA892B26
:104C3000D9F4EAE2F2E084918F010F5F1F4F8823DD
:104C400021F00E94DFD5F801F6CF86E594E090933D
:104C5000BD148093BC140E94D4BC109233021092F5
:104C600035040E947CA684C06AE074E088E692E184
:104C70000E9422FA892B09F07BC01092861278C01C
:104C80001D8218861C821B828DEE92E09A83898396
:104C900080917D0E811103C067E57EE002C066E76A
:104CA0007EE06115710519F06C5F7F4F02C060E016
:104CB00070E021E048E652E1CE0105960E945EAA2E
:104CC000882361F18BE1FE013596AAE7BEE00190F1
:104CD0000D928A95E1F72B813C813093790E2093D8
:104CE000780E8091CB0F8A3008F03EC091E0980F8B
:104CF0009093CB0FFFE18F9FC0011124DC01A756D9
:104D0000B14F4BE1EAE7FEE001900D924A95E1F7E1
:104D1000FC01EB56F14F3383228326C0EDECF2E227
:104D200084918F010F5F1F4F882321F00E94DFD5F0
:104D3000F801F6CFEFE0F2E084918F010F5F1F4F93
:104D4000811103C008E612E104C00E94DFD5F8011A
:104D5000F3CFF80181918F01882319F00E94DFD5EC
:104D6000F8CF8AE00E94DFD5CE0101960E9472B191
:104D7000109268128091090180FF07C1E7E8F7E00F
:104D800084918F01882311F40C94111B082E000CC0
:104D9000990B0E9484A60F5F1F4FF8018491F2CFF8
:104DA0008FE40E9475CA81110C94111B83E40E9448
:104DB00075CA0C94111B83E50E9475CA811159C0F4
:104DC0008FE40E9475CA882319F08FE497E007C02A
:104DD00084E50E9475CA882349F087E297E09093A2
:104DE000BD148093BC140E94D4BC43C083E40E94D1
:104DF00075CA882319F08EEF96E0F1CF81E50E9405
:104E000075CA882319F086ED96E0E9CF88E40E9400
:104E100075CA8823C9F0E2EDF6E084918F018823FA
:104E200051F0082E000C990B0E9484A60F5F1F4FB3
:104E3000F8018491F4CF8DE090E00E9484A68AE08E
:104E400090E00E9484A615C08CE40E9475CA882355
:104E500081F0EEECF6E084918F01882361F3082E57
:104E6000000C990B0E9484A60F5F1F4FF8018491DC
:104E7000F4CFE6E9F7E084918F01882311F40C94D4
:104E8000111B082E000C990B0E9484A60F5F1F4F68
:104E9000F8018491F2CF8091AC0D8091AD0D0C940E
:104EA000111B83E50E9475CA882309F46EC086EA47
:104EB00096E09093BD148093BC140E94D4BCE6E9A4
:104EC000F7E084918F01882311F40C94111B082EB4
:104ED000000C990B0E9484A60F5F1F4FF80184916C
:104EE000F2CFE1EAF6E084918F01882351F0082E99
:104EF000000C990B0E9484A60F5F1F4FF80184914C
:104F0000F4CFECE9F6E084918F01882311F40C943E
:104F1000111B082E000C990B0E9484A60F5F1F4FD7
:104F2000F8018491F2CF88E50E9475CA811106C00C
:104F300089E50E9475CA882309F481C088E50E942A
:104F400075CA882341F08DE398E09093BD14809357
:104F5000BC140E94D4BC89E50E9475CA882341F024
:104F600087E398E09093BD148093BC140E94D4BC56
:104F70008AE50E9475CA882341F081E398E0909306
:104F8000BD148093BC140E94D4BC809133129091C4
:104F90003412019664E070E00E94B0F990933412EC
:104FA0008093331280912F1290913012019690933A
:104FB000301280932F1210923712109236120C94E6
:104FC000AF196091331270913412A9014F5F5F4F96
:104FD000509337124093361290E6969FA001979F08
:104FE000500D112443555F4EFA01E20FF31F8283E7
:104FF0000C94AF191092AE100E943C7860933D1251
:1050000070933E1280933F12909340120E947CA6B0
:1050100081E08093AD1010924912E0E5F8E08491B0
:105020008F01882311F40C94111B082E000C990B8E
:105030000E9484A60F5F1F4FF8018491F2CF8AE58A
:105040000E9475CA81117ACF83E40E9475CA8823B1
:1050500009F49BCF8DE298E092CF86E40E9475CA56
:10506000882309F44DC10E9490CA0E9410F88B0158
:1050700089E298E09093BD148093BC140E94D4BC44
:1050800088E50E9475CA882309F451C00E9490CA1D
:105090004B015C012DEC3CEC4CE45EE30E945DF2C4
:1050A0009E012F5F3F4F7901181674F020E030E029
:1050B000A901C501B4010E94EDF818162CF41F9344
:1050C0000F938EE198E005C12DEC3CEC4CEC5DEBD0
:1050D000C501B4010E945DF218167CF020E030E0BA
:1050E00040E85FEBC501B4010E94EDF818162CF4FE
:1050F0001F930F9382E198E0ECC01F930F93C501BB
:10510000B4010E940BF87F936F9388E098E09F931F
:105110008F93FF92EF920E942EF20FB6F894DEBFAB
:105120000FBECDBFCE0101960E94ACBCDFC089E5A9
:105130000E9475CA882309F441C00E9490CA4B019D
:105140005C012DEC3CEC4CE45EE30E945DF2FE0160
:1051500031967F01181674F020E030E0A901C501F6
:10516000B4010E94EDF818162CF41F930F938DEFE5
:1051700097E0AFC02DEC3CEC4CEC5DEBC501B4010D
:105180000E945DF218167CF020E030E040E85FEB12
:10519000C501B4010E94EDF818162CF41F930F936B
:1051A00081EF97E096C01F930F93C501B4010E9451
:1051B0000BF87F936F9387EE97E0A9CF8AE50E9463
:1051C00075CA882309F441C00E9490CA4B015C0152
:1051D0002DEC3CEC4CE45EE30E945DF2FE01319666
:1051E0007F01181674F020E030E0A901C501B40178
:1051F0000E94EDF818162CF41F930F938CED97E096
:1052000068C02DEC3CEC4CEC5DEBC501B4010E9498
:105210005DF218167CF020E030E040E85FEBC5015D
:10522000B4010E94EDF818162CF41F930F9380ED33
:1052300097E04FC01F930F93C501B4010E940BF874
:105240007F936F9386EC97E062CF85E40E9475CAE6
:10525000882309F44BC00E9490CA4B015C012DECDD
:105260003CEC4CE45EE30E945DF2FE0131967F016E
:10527000181674F020E030E0A901C501B4010E94C5
:10528000EDF818162CF41F930F938BEB97E021C0C9
:105290002DEC3CEC4CEC5DEBC501B4010E945DF2E1
:1052A00018167CF020E030E040E85FEBC501B40167
:1052B0000E94EDF818162CF41F930F938FEA97E0D5
:1052C00008C0C501B4010E940BF87F936F9384EA74
:1052D00097E09F938F93FF92EF920E942EF20F9090
:1052E0000F900F900F900F900F901CCF80EA97E0D7
:1052F0009093BD148093BC140E94D4BC0C94111BD9
:1053000000E010E0B5CE20E030E040E251E46091F2
:1053100050047091510480915204909153040E9462
:105320005DF287FF08C089E997E09093BD148093F0
:10533000BC140E94D4BC82E390E09093410480931B
:1053400040040E946B7C88EC90E00E94C753E6E921
:10535000F7E084918F01882311F40C94111B082E1F
:10536000000C990B0E9484A60F5F1F4FF8018491D7
:10537000F2CF20E030E040E251E4609150047091BF
:10538000510480915204909153040E945DF287FF72
:1053900008C08FE897E09093BD148093BC140E94DE
:1053A000D4BC80E590E090934104809340040E9437
:1053B0006B7C80EF90E00E94C753E6E9F7E08491B0
:1053C0008F01882311F40C94111B082E000C990BEB
:1053D0000E9484A60F5F1F4FF8018491F2CF80E0F6
:1053E00090E00E94C75310924104109240040E9422
:1053F0006B7CEBE8F7E084918F01882311F40C9427
:10540000111B082E000C990B0E9484A60F5F1F4FE2
:10541000F8018491F2CFA7960FB6F894DEBF0FBEC5
:10542000CDBFDF91CF911F910F91FF90EF90DF9053
:10543000CF90BF90AF909F908F907F906F905F9034
:105440004F903F902F9008952F923F924F925F92EE
:105450006F927F928F929F92AF92BF92CF92DF9284
:10546000EF92FF920F931F93CF93DF93CDB7DEB7E9
:10547000CB54D1090FB6F894DEBF0FBECDBF11E0FB
:105480001093E41B8091681C8D3409F461C5843548
:1054900011F40C940241873411F00C944E41809128
:1054A000661C9091671C8B31910509F417C2A4F416
:1054B0008430910534F48230910594F597FF29C02A
:1054C00043C58430910509F4D3C14A9709F03CC51E
:1054D0000E94BC480C9450418A32910509F42DC4B5
:1054E00044F48C31910509F429C24D9709F42BC27B
:1054F0002BC58B35910509F4AFC48C35910509F4A2
:10550000AFC48A35910509F01FC510926D040C9443
:1055100050418091500281110C9455410C9450419E
:1055200020915002222311F40C94504111E0029773
:1055300009F010E00E94ECB819821A821B821C82CA
:105540001D821E821F82188682E50E94634788237F
:1055500009F43EC10E94E5466B017C01209148049C
:105560003091490440914A0450914B0428AB39AB27
:105570004AAB5BAB80904C0490904D04A0904E04DD
:10558000B0904F044091351C5091361C6091371CEF
:105590007091381C4CAB5DAB6EAB7FAB6091391C2E
:1055A00070913A1C80913B1C90913C1C68AF79AF84
:1055B0008AAF9BAF20E030E0A901C701B6010E948D
:1055C0005DF2882309F41AC128A939A94AA95BA95F
:1055D0006CA97DA98EA99FA90E945DF281110BC0C3
:1055E000A501940168AD79AD8AAD9BAD0E945DF2D5
:1055F000882309F403C120E030E0A901C701B60106
:105600000E945DF2881F8827881F18130BC080E056
:1056100090E0A0E8BFE32C968CAF9DAFAEAFBFAFDC
:105620002C970AC020E030E040E85FEB2C962CAFCE
:105630003DAF4EAF5FAF2C9728A939A94AA95BA906
:105640006CA97DA98EA99FA90E94C6F624966CAF6D
:105650007DAF8EAF9FAF2497A501940168AD79AD62
:105660008AAD9BAD0E94C6F628966CAF7DAF8EAF1B
:105670009FAF289724962CAD3DAD4EAD5FAD2497DE
:10568000CA01B9010E94C2F22B013C0128962CAD3F
:105690003DAD4EAD5FAD2897CA01B9010E94C2F27F
:1056A0009B01AC01C301B2010E94C7F60E9432F90E
:1056B0006CAF7DAF8EAF9FAF20E030E040E05FE3A6
:1056C0000E94C2F22B013C01A7019601C701B6015D
:1056D0000E94C2F26B017C01A3019201C301B201DD
:1056E0000E94C2F29B01AC01C701B6010E94C6F63E
:1056F0000E9432F99B01AC012C966CAD7DAD8EAD54
:105700009FAD2C970E94C2F26B017C012CA93DA990
:105710004EA95FA968A979A98AA99BA90E94C7F681
:1057200020E030E040E05FE30E94C2F22B013C0148
:1057300028966CAD7DAD8EAD9FAD289790582CAD61
:105740003DAD4EAD5FAD0E94A3F79B01AC01C7011B
:10575000B6010E94C2F29B01AC01C301B2010E94DA
:10576000C7F628A939A94AA95BA90E94C6F6698388
:105770007A838B839C8328AD39AD4AAD5BADC5017F
:10578000B4010E94C7F620E030E040E05FE30E94F1
:10579000C2F22B013C012CAD3DAD4EAD5FAD249668
:1057A0006CAD7DAD8EAD9FAD24970E94A3F79B019C
:1057B000AC01C701B6010E94C2F29B01AC01C3015A
:1057C000B2010E94C7F6A50194010E94C6F612C05C
:1057D00089E40E946347882331F00E94E54669838B
:1057E0007A838B839C838AE40E946347882331F009
:1057F0000E94E5466D837E838F83988720E030E0AA
:10580000A90169817A818B819C810E945DF281115D
:105810000BC020E030E0A9016D817E818F819885E9
:105820000E945DF2882351F0412FBE016F5F7F4FD0
:1058300085E39CE10E94F9810C945041E8EBF2E28F
:1058400084918F010F5F1F4F882321F00E94DFD5C5
:10585000F801F6CFE7E2F9E084918F010F5F1F4F67
:10586000882311F40C9450410E94DFD5F801F4CF45
:1058700080E50E946347882329F00E9409D56B01C7
:105880007C0103C0C12CD12C760183E50E946347C3
:10589000882361F00E94E54620E030E04AE754E4C6
:1058A0000E94C2F20E9410F86B017C010E94989A3B
:1058B0000E943C78C60ED71EE81EF91E0E943C7856
:1058C000DC01CB018C199D09AE09BF09B7FD02C0EF
:1058D0000C94504180E00E94577DF0CF0E94EEE290
:1058E00081110C94504180E090E0A0EAB0E48983FB
:1058F0009A83AB83BC8380E090E0ADE4B3E48D8316
:105900009E83AF83B88780E090E0A0EAB1E4898706
:105910009A87AB87BC8780E50E946347882319F08C
:105920000E94B54601C060E06C8FBE016F5F7F4F83
:10593000CE014C960E944DB70C94504180E00E94DD
:1059400040740C94504183E50E946347882309F119
:105950000E94C546863070F0EDEEF9E084918F012B
:105960000F5F1F4F882311F40C9450410E94DFD524
:10597000F801F4CF833009F445C12CF4813069F18A
:105980008230D9F106C0843009F4A7C1853009F40A
:10599000B4C10E946DBA882399F08091001C8111D6
:1059A00003C065E174E002C061E174E085EC99E058
:1059B0000E946DD18AE00E94DFD50E94DCECB9C163
:1059C000EDECF9E084918F010F5F1F4F882309F4FC
:1059D000B0C10E94DFD5F801F5CF0E94E1B7109267
:1059E0000302109202028AEB99E09093BD14809317
:1059F000BC140E94D4BC0C9450418091020290913E
:105A0000030297FF0EC0E1E9F9E084918F010F5F77
:105A10001F4F882311F40C9450410E94DFD5F801E8
:105A2000F4CF0097A1F48091230280936E04198231
:105A30001A821B821C821C8E1D8E1E8E1F8EBE0122
:105A40006F5F7F4FCE014C960E940CBC27C08150E7
:105A500065E00E948FF980FF03C024E0291B922F8C
:105A600035E09302F0011124E80FF11D87FDFA954E
:105A7000EE0FFF1FEE0FFF1FEF52FC4E8091500400
:105A800090915104A0915204B0915304808391836A
:105A9000A283B38380916E048093230280910202DB
:105AA00090910302893191050CF067C01092230296
:105AB0009C012F5F3F4F309303022093020265E069
:105AC0000E948FF980FF03C024E0291B922F409190
:105AD00050045091510460915204709153044C8FC2
