:100000000C9409180C943A180C943A180C943A1859
:100010000C943A180C943A180C943A180C943A1818
:100020000C943A180C943A180C943A180C943A1808
:100030000C943A180C94A45C0C943A180C943A184A
:100040000C943A180C94D2BC0C943A180C943A18AC
:100050000C943A180C943A180C94279B0C945A98C8
:100060000C943A180C946F950C9461430C943A18C4
:100070000C943A180C943A180C943A180C943A18B8
:100080000C943A180C943A180C943A180C943A18A8
:100090000C943A180C943A180C943A180C943A1898
:1000A0000C943A180C943A180C943A180C943A1888
:1000B0000C943A180C943A180C943A180C943A1878
:1000C0000C943A180C943A180C943A180C943A1868
:1000D0000C943A180C943A180C94DF500C94A050DD
:1000E0000C943A18B81AD51A061B231B381B621B2E
:1000F000CF1B351CDE1C77218121302258225C2247
:10010000BB22A627D0221C2343236C239823EF2352
:1001100000241424252436244724A627B126A62704
:10012000BC262C2732275227A195A795B895C395B1
:10013000CB95E095CF95E095D395D795E095DD9556
:1001400031963496239627962D966B9638963C9644
:10015000429646964A965096549658966B965E9658
:10016000629666964A974F9754975E976897E1977D
:1001700072977A9782978C979697A097AF97B9972F
:10018000E197C397CD97D797084AD73B3BCE016EEF
:1001900084BCBFFDC12F3D6C74319ABD56833DDADE
:1001A0003D00C77F11BED9E4BB4C3E916BAAAABEED
:1001B000000000803F05A84CCDB2D44EB93836A916
:1001C000020C50B9918688083CA6AAAA2ABE000053
:1001D00000803F004E414E494E495459494E46CD4C
:1001E000CCCC3D0AD7233C17B7D13877CC2B3295EE
:1001F00095E6241FB14F0A000020410000C84200CC
:10020000401C4620BCBE4CCA1B0E5AAEC59D744352
:10021000616E6E6F7420656E7465722073756264B2
:1002200069723A20004D3630300053706563696161
:100230006C204D656E753A2046696C616D656E7413
:100240004368616E676520526573756D650A00537A
:1002500070656369616C204D656E753A2046696C06
:10026000616D656E744368616E676520506175737A
:10027000650A004739310A4731205A2D302E310A9C
:10028000473930005370656369616C204D656E7548
:100290003A205A20446F776E20302E310A004739B9
:1002A000310A4731205A2D302E30320A473930007A
:1002B0005370656369616C204D656E753A205A20F4
:1002C000446F776E20302E30320A004739310A47AA
:1002D00031205A2B302E30320A47393000537065A6
:1002E0006369616C204D656E753A205A2055702007
:1002F000302E30320A004739310A4731205A2B302C
:100300002E310A473930005370656369616C204DA6
:10031000656E753A205A20557020302E310A0047FC
:100320003239205332005370656369616C204D652A
:100330006E753A204E657874204D65736820506F55
:10034000696E740A00473239205331005370656377
:1003500069616C204D656E753A205374617274202A
:100360004D657368204C6576656C696E670A004D53
:1003700031343020533630005370656369616C202E
:100380004D656E753A2050726568656174204265EE
:10039000640A004D353032005370656369616C202A
:1003A0004D656E753A204C6F616420465720446558
:1003B0006661756C74730A004D353030005370659A
:1003C0006369616C204D656E753A205361766520D6
:1003D000454550524F4D0A004D33303320452D31A5
:1003E0002053363020433620553100537065636901
:1003F000616C204D656E753A204175746F2054759F
:100400006E6520486F74626564205069640A004D0F
:1004100031303620533230340A4D333033204530BA
:10042000205332313020433135205531005370652F
:100430006369616C204D656E753A204175746F205B
:1004400054756E6520486F74656E64205049440A87
:10045000004D313038004D313038004D3234004DD0
:100460003234003C5370656369616C5F4D656E7535
:100470003E003C5370656369616C5F4D656E753E0F
:10048000002F002F002F002F2E2E0A002F2E2E00BF
:100490002F2E2E003C5370656369616C5F4D656E55
:1004A000753E0A003C5370656369616C204D656E52
:1004B000753E003C5370656369616C204D656E75D7
:1004C0003E003C46696C616D656E744368616E67A1
:1004D0006520526573756D653E003C46696C616DC3
:1004E000656E744368616E676520526573756D65EE
:1004F0003E003C46696C616D656E744368616E6771
:10050000652050617573653E003C46696C616D65A0
:100510006E744368616E67652050617573653E0057
:100520003C4C6F61642046572044656661756C746D
:10053000733E003C4C6F6164204657204465666101
:10054000756C74733E003C4175746F2054756E6514
:1005500020486F74626564205049443E003C4175F8
:10056000746F2054756E6520486F74626564205006
:1005700049443E003C4175746F2054756E652048B7
:100580006F74656E64205049443E003C4175746F41
:100590002054756E6520486F74656E642050494420
:1005A0003E003C457869743E003C457869743E00E5
:1005B0003C5361766520454550524F4D3E003C53BB
:1005C00061766520454550524F4D3E003C4E657862
:1005D00074204D65736820506F696E743E003C4E08
:1005E000657874204D65736820506F696E743E00A5
:1005F0003C5374617274204D657368204C65766558
:100600006C696E673E003C5374617274204D657373
:1006100068204C6576656C696E673E003C5072657B
:1006200068656174206265643E003C50726568656F
:100630006174206265643E003C5A20446F776E20EE
:10064000302E313E003C5A20446F776E20302E31E0
:100650003E003C5A20446F776E20302E30323E00F0
:100660003C5A20446F776E20302E30323E003C5A88
:1006700020557020302E30323E003C5A20557020DC
:10068000302E30323E003C5A20557020302E313E04
:10069000003C5A20557020302E313E005631313604
:1006A000004A333320004D3530300A4D343230208B
:1006B00053310A4731205A313020463234300A470C
:1006C00031205830205930204636303030004A3200
:1006D00032004A3232004731205A35204632343017
:1006E0000A473120583139302059323020463630CF
:1006F00030300A4731205A302046323430004731FA
:10070000205A3520463234300A47312058313930AA
:1007100020593139302046363030300A4731205A9E
:10072000302046323430004731205A3520463234AA
:10073000300A47312058313930205932302046367E
:100740003030300A4731205A3020463234300047AA
:1007500039310A4731205A313020463234300A4785
:1007600039300A4732380A4732390A47312058327D
:1007700030205932302046363030300A4731205A46
:10078000302046323430004A3032004A313200479D
:1007900031205A3130004F4B004731205A31300060
:1007A000473930004731204525694635303000470C
:1007B0003120452D302E3146256900473120453006
:1007C0002E31462569004731205A256946256900A2
:1007D0004731205A2D302E31462569004731205AA5
:1007E000302E314625690047312059256946256953
:1007F00000473120592D302E3146256900473120E0
:1008000059302E3146256900473120582569462543
:100810006900473120582D302E3146256900473177
:100820002058302E3146256900473931004732388B
:1008300000473238205A00473238205900473238B2
:100840002058004132305620004731205A313000C4
:100850004A3034004A3231004A3230004B494C4C65
:1008600045442E20004A3136004A303400454E447B
:1008700000464E20004A3032003939393A39393988
:10088000004D0048004137562000413656202D2D9E
:100890002D004A30320041365620005A3A20005985
:1008A0003A2000583A200041355600413456200085
:1008B000413356200041325620004131562000413C
:1008C000305620004D3237004D3834004739310A58
:1008D000473120452D312046313830300A473930F4
:1008E000004A3136004D313235204C32004A313821
:1008F000004A3134004A3030004A3031004A313049
:1009000000434F4D4D554E49434154494F4E0044CD
:10091000525952554E004552524F525300494E467D
:100920004F004543484F0047322F473320626164F0
:1009300020706172616D65746572730A00206F6664
:1009400020004D424C2047323920706F696E742070
:1009500000290A0059206F7574206F662072616E3D
:1009600067652028312D00290A0058206F757420F2
:100970006F662072616E67652028312D004D6573AA
:10098000682070726F62696E6720646F6E652E0AF0
:10099000005374617274206D6573682070726F62A9
:1009A000696E672077697468202247323920533195
:1009B000222066697273742E0A004732380A473261
:1009C000392053320053746174653A20004D6573C9
:1009D0006820626564206C6576656C696E67206866
:1009E0006173206E6F20646174612E0A0053206F62
:1009F0007574206F662072616E67652028302D3512
:100A0000292E0A004D65736820706F696E7420632B
:100A1000616E6E6F74206265207265736F6C7665AF
:100A2000640A00456E642066696C65206C697374A5
:100A30000A00426567696E2066696C65206C69739F
:100A4000740A004D31323500286E6F2066696C657E
:100A500029005344207072696E74696E6720627950
:100A6000746520004E6F74205344207072696E7458
:100A7000696E670A0043757272656E742066696CF0
:100A8000653A200046696C652064656C6574656430
:100A90003A0044656C6574696F6E206661696C65C7
:100AA000642C2046696C653A20005072696E74208F
:100AB00074696D653A20006F6E2E0A006F66662EAF
:100AC0000A00473236204465627567200022091DFE
:100AD0000916090F0901096F66660044454255472A
:100AE0003A004D3131332053006F6B002C20002C25
:100AF0002000544845524D414C5F50524F5445439D
:100B000054494F4E004155544F5245504F52545F37
:100B100053445F53544154555300454D4552474546
:100B20004E43595F50415253455200434153455F34
:100B30004C494748545F4252494748544E455353E5
:100B400000544F47474C455F4C4947485453005366
:100B50004F4654574152455F504F574552004255FA
:100B6000494C445F50455243454E54004C45564510
:100B70004C494E475F44415441005A5F50524F42E6
:100B800045004155544F4C4556454C005052494E36
:100B9000545F4A4F420050524F4752455353004111
:100BA00055544F5245504F52545F54454D50005686
:100BB0004F4C554D455452494300454550524F4DB9
:100BC0000053455249414C5F584F4E5F584F46467F
:100BD000004649524D574152455F4E414D453A4DB1
:100BE00061726C696E20312E312E3920284769746C
:100BF0006875622C20646176696472616D69726FD8
:100C000029204D41524C494E2D4149334D5F5645A7
:100C10005253494F4E3A76312E342E3620534F558B
:100C20005243455F434F44455F55524C3A68747494
:100C300070733A2F2F6769746875622E636F6D2F1A
:100C4000646176696472616D69726F2F4D61726C57
:100C5000696E2D4149334D2050524F544F434F4CF4
:100C60005F56455253494F4E3A312E30204D414345
:100C700048494E455F545950453A416E7963756213
:100C80006963206933204D6567612045585452558A
:100C90004445525F434F554E543A312055554944CF
:100CA0003A63656465326132662D343161322D34C8
:100CB0003734382D396231322D633535633632663B
:100CC00033363766660A002F2F200020540020524A
:100CD00000416363656C65726174696F6E3A2050A0
:100CE000005741524E494E4721204C6F77205A20E1
:100CF0004A65726B206D6179206C65616420746F48
:100D000020756E77616E74656420706175736573AC
:100D10002E0A00546F6F206661722066726F6D201C
:100D20007265666572656E636520706F696E740AC0
:100D30000020466C6F773A20000001363726032BDF
:100D4000FFFFFF3C3D382AFFFFFFFF2E303E12FF22
:100D5000FFFFFFFFFFFF0809FF2C071A1C18FFFF0A
:100D6000FF08440A2C4324221E20643A0020693ADA
:100D70000020703A00496E76616C69642065787471
:100D800072756465720A0043290A0061626C6564C9
:100D900020286D696E2074656D702000436F6C644F
:100DA0002065787472756465732061726520004EE9
:100DB0006F2063617365206C696768740A0045453C
:100DC00050524F4D204F4B0A00205A004475616C21
:100DD00020456E6473746F702041646A7573746D1E
:100DE000656E7420286D6D293A20003F4B20766196
:100DF0006C7565206F7574206F662072616E676513
:100E00002028302D3130292E0A00416476616E632E
:100E100065204B3D004163746976652045787472A6
:100E2000756465723A2000496E76616C696420656C
:100E3000787472756465720A00696E206D6F7665EC
:100E40005F746F282920666565645F76616C7565DF
:100E500020666F722058593A002C2065793D002990
:100E6000202D3E202865783D002C2073793D002000
:100E7000436F6E6E656374696E672077697468206E
:100E8000766572746963616C206C696E6520287385
:100E9000783D002C2065793D0029202D3E202865D5
:100EA000783D002C2073793D0020436F6E6E6563A2
:100EB00074696E67207769746820686F72697A6FE9
:100EC0006E74616C206C696E65202873783D003FFC
:100ED00053706563696669656420582C5920636F97
:100EE0006F7264696E617465206F7574206F66201F
:100EF000626F756E64732E0A003F28522965706513
:100F000061742076616C7565206E6F7420706C6101
:100F1000757369626C653B206D7573742062652022
:100F20006174206C6561737420312E0A003F285271
:100F3000296570656174206D757374206265207316
:100F40007065636966696564207768656E206E6F99
:100F500074207573696E6720616E204C43442E0ABD
:100F6000003F537065636966696564206E6F7A7AC5
:100F70006C652074656D7065726174757265206E44
:100F80006F7420706C61757369626C652E0A003F26
:100F90005370656369666965642066696C616D6537
:100FA0006E742073697A65206E6F7420706C617541
:100FB0007369626C652E0A003F53706563696669E8
:100FC0006564207072696D65206C656E6774682059
:100FD0006E6F7420706C61757369626C652E0A00A7
:100FE0003F5072696D65206C656E677468206D7521
:100FF0007374206265207370656369666965642037
:101000007768656E206E6F74207573696E672061F6
:101010006E204C43442E0A003F5370656369666935
:101020006564206E6F7A7A6C652073697A65206ECC
:101030006F7420706C61757369626C652E0A003F75
:10104000496E76616C69642052657472616374697B
:101050006F6E2F556E72657472616374696F6E2066
:10106000726174696F2E204D7573742062652077EC
:10107000697468696E20356D6D2E0A0020556E7298
:10108000657472616374696F6E20616D6F756E74E3
:10109000206175746F6D61746963616C6C79207324
:1010A000657420746F20003F5370656369666965DD
:1010B0006420556E72657472616374696F6E206C22
:1010C000656E677468206E6F7420706C61757369EB
:1010D000626C652E0A003F556E72657472616374AE
:1010E000696F6E206C656E677468206D757374200F
:1010F0006265207370656369666965642E0A003FE6
:1011000053706563696669656420526574726163D2
:1011100074696F6E206C656E677468206E6F7420E2
:10112000706C61757369626C652E0A003F5265745C
:1011300072616374696F6E206C656E677468206D90
:101140007573742062652073706563696669656490
:101150002E0A003F537065636966696564206C619F
:1011600079657220686569676874206E6F74207095
:101170006C61757369626C652E0A003F537065631C
:101180006966696564206265642074656D70657266
:101190006174757265206E6F7420706C617573690F
:1011A000626C65202834302D31343043292E0A00FA
:1011B00047323620636F6D6D616E642073746172A7
:1011C0007465642E2057616974696E6720666F725A
:1011D000206865617465722873292E0A0024F4D48E
:1011E0003050C38E20C2A24017828B7011127A91A8
:1011F0000D816CD90AA861E108C75866076151439F
:10120000061E4B5D05C145A7041A411104093D980E
:1012100003713931034036DB0265339102D4305417
:1012200002802E1D02632CEE01752AC501B028A094
:1012300001102781018F2564012B244B01E022340A
:1012400001AC211F018D200D01801FFC00841EEDCB
:1012500000971DDF00B81CD200E61BC600201BBC97
:1012600000641AB200B219A8000A19A0006A1899FD
:1012700000D117910040178B00B516840031167EFF
:1012800000B31579003A157300C7146F0058146A3B
:1012900000EE1366008813630025135E00C7125B1F
:1012A000006C12570015125400C111510070114FFB
:1012B0000021114B00D61049008D10470046104404
:1012C0000002104200C00F4000800F3E00420F3C61
:1012D00000060F3B00CB0E3800930E37005C0E3536
:1012E00000270E3400F30D3200C10D3100900D3097
:1012F00000600D2E00320D2D00050D2C00D90C2B99
:1013000000AE0C2900850C29005C0C2700350C2749
:10131000000E0C2600E80B2400C40B2400A00B23B5
:10132000007D0B23005A0B2100390B2100180B20E4
:1013300000F80A1F00D90A1E00BB0A1E009D0A1DE4
:1013400000800A1D00630A1C00470A1B002C0A1BB0
:1013500000110A1A00F7091A00DD091900C4091959
:1013600000AB091900920917007B091800630917DF
:10137000004C09160036091600200916000A091546
:1013800000F5081500E0081400CC081400B8081493
:1013900000A4081400900813007D0812006B0813C5
:1013A00000580812004608120034081100230811E2
:1013B000001208110001081100F0071000E00710EA
:1013C00000D0071000C0071000B0070F00A10710E1
:1013D0000091070E0083070F0074070F0065070ECA
:1013E0000057070E0049070E003B070D002E070EA1
:1013F0000020070D0013070D0006070D00F9060C6D
:1014000000ED060D00E0060C00D4060C00C8060C2A
:1014100000BC060C00B0060C00A4060B0099060CDC
:10142000008D060B0082060B0077060B006C060B86
:101430000061060A0057060B004C060A0042060A25
:101440000038060A002E060A0024060A001A060AB8
:10145000001006090007060A00FD050900F4050949
:1014600000EB050900E2050900D9050900D00509CE
:1014700000C7050900BE050900B5050800AD05084F
:1014800000A50509009C050800940508008C0508C6
:1014900000840508007C050800740508006C050739
:1014A00000650508005D050700560508004E0507A4
:1014B000004705070040050800380507003105070B
:1014C000002A050700230507001C0506001605076E
:1014D000000F0507000805060002050700FB0406CB
:1014E00000F5040700EE040600E8040600E2040725
:1014F00000DB040600D5040600CF040600C904067C
:1015000000C3040600BD040600B7040600B10405CC
:1015100000AC040600A6040600A00405009B040617
:101520000095040500900406008A04050085040562
:1015300000800406007A04050075040500700405A7
:10154000006B04050066040500610405005C0405E9
:101550000057040500520405004D04050048040529
:1015600000430405003E0404003A04050035040568
:1015700000300404002C04050027040400230405A3
:10158000001E0404001A04040016040500110404DB
:10159000000D040400090405000404040000040410
:1015A00000FC030400F8030400F4030400F0030447
:1015B00000EC030400E8030400E4030400E0030477
:1015C00000DC030400D8030400D4030400D00304A7
:1015D00000CC030400C8030300C503030024F40483
:1015E000D9201BC40C5C0E9804C4095F0265077106
:1015F00001F405F900FB04B30048048700C1036946
:10160000005803550003034500BE023A008402312E
:101610000053022A002902250004022000E4011CD4
:1016200000C8011900AF01170098011400840113CC
:1016300000710110006101100051010E0043010D05
:101640000036010B002B010B0020010B00150109D6
:10165000000C01090003010800FB000800F300086A
:1016600000EB000700E4000600DE000600D80006DC
:1016700000D2000600CC000500C7000500C200052E
:1016800000BD000400B9000400B5000400B100046E
:1016900000AD000400A9000400A5000300A200039F
:1016A000009F0004009B00030098000300950002C7
:1016B0000093000300900003008D0002008B0003E4
:1016C00000880002008600020084000300810002FE
:1016D000007F0002007D0002007B00020079000212
:1016E0000077000100760002007400020072000121
:1016F00000710002006F0002006D0001006C00022A
:10170000006A000100690002006700010066000134
:101710000065000100640002006200010061000138
:1017200000600001005F0002005D0001005C00013C
:10173000005B0001005A000100590001005800013F
:10174000005700010056000100550001005400013F
:10175000005300000053000100520001005100013D
:1017600000500001004F0001004E0000004E00013B
:10177000004D0001004C0001004B0000004B000137
:10178000004A000100490001004800000048000133
:10179000004700010046000000460001004500002F
:1017A0000045000100440001004300000043000127
:1017B0000042000000420001004100000041000121
:1017C00000400001003F0000003F0001003E00001B
:1017D000003E0001003D0000003D0001003C000013
:1017E000003C0000003C0001003B0000003B000109
:1017F000003A0000003A0001003900000039000101
:1018000000380000003800000038000100370000F8
:1018100000370001003600000036000000360001ED
:1018200000350000003500000035000100340000E4
:1018300000340000003400010033000000330000D9
:1018400000330001003200000032000000320001CD
:1018500000310000003100000031000100300000C4
:101860000030000000300001002F0000002F0000B9
:10187000002F0000002F0001002E0000002E0000AD
:10188000002E0001002D0000002D0000002D0000A2
:10189000002D0001002C0000002C0000002C000096
:1018A000002C0001002B0000002B0000002B00008A
:1018B000002B0001002A0000002A0000002A00007E
:1018C000002A000100290000002900000029000072
:1018D0000029000000290001002800000028000065
:1018E0000028000000280000002800010027000058
:1018F000002700000027000000270000002700014B
:10190000002600000026000000260000002600003F
:101910000026000100250000002500000025000031
:101920000025000000250000002500010024000023
:101930000024000000240000002400000024000116
:10194000002300000023000000230000002300000B
:1019500000230000002300000023000100220000FB
:1019600000220000002200000022000000220000EF
:1019700000220001002100000021000000210000E1
:1019800000210000002100000021000000210001D2
:1019900000200000002000000020000000200000C7
:1019A00000200000002000000020000000200001B6
:1019B000001F0000001F0000001F0000001F0000AB
:1019C000001F0000001F0000001F0001001E00009B
:1019D000001E0000001E0000001E000000232C005E
:1019E00000B8220000561800003A0F0000B80800A6
:1019F00000B1040000710200003E010000024A3103
:101A000035004A3132004A3137002020506C616E77
:101A10006E657242756666657242797465733A20C6
:101A2000002046726565204D656D6F72793A200021
:101A3000436F6D70696C65643A204A756C2020367E
:101A400020323031390A00207C20417574686F7271
:101A50003A204461726B5F5361726D6174206D61F5
:101A6000726C696E20416E796375626963206933B7
:101A7000204D656761204D4F440A00323031392DC9
:101A800030342D303300204C617374205570646104
:101A90007465643A200076312E342E360A004D618A
:101AA000726C696E2D4149334D00312E312E390A49
:101AB000004D61726C696E0020536F6674776172BD
:101AC000652052657365740A002057617463686409
:101AD0006F672052657365740A002042726F776EDB
:101AE000206F75742052657365740A002045787400
:101AF00065726E616C2052657365740A00506F7771
:101B0000657255700A0073746172740A004D323444
:101B1000004D3233202573006175746F25692E677F
:101B2000006572726F722077726974696E672074D3
:101B30006F2066696C650A00205A3A0020593A0005
:101B400020583A00656E6473746F7073206869740E
:101B50003A2000446F6E6520736176696E67206677
:101B6000696C652E0A004D323900486F6D696E67E9
:101B7000206661696C656400206E6F7420656E7408
:101B8000657265642E0A0050726F746563746564D3
:101B90002050696E0A0046696C616D656E7420752F
:101BA0007365643A200053746174733A20002C20EA
:101BB0004C6F6E67657374206A6F623A2000546FD1
:101BC00074616C2074696D653A200053746174739C
:101BD0003A20002C204661696C65643A20002C2074
:101BE00046696E69736865643A20005072696E7464
:101BF000733A200053746174733A20004A303600FF
:101C00004A3034004A30370020573A004A30380012
:101C10004A30390020573A00205A3A0020593A00F9
:101C200020436F756E7420583A0020453A00205AC0
:101C30003A0020593A00583A003A004361703A009D
:101C4000205A00205900580020204D61783A200089
:101C5000205A00205900580020204D696E3A20007B
:101C60004F6E20004F666600536F667420656E6489
:101C700073746F70733A200020746F6F206C6F6EF6
:101C80006720657874727573696F6E2070726576FF
:101C9000656E7465640A0020636F6C6420657874F7
:101CA000727573696F6E2070726576656E746564A7
:101CB0000A00454550524F4D206461746173697A42
:101CC00065206572726F722E0A00290A00206279FF
:101CD0007465733B20637263200053657474696E8E
:101CE00067732053746F726564202800290A0020EE
:101CF00062797465733B2063726320002073746F94
:101D00007265642073657474696E6773207265749C
:101D1000726965766564202800202863616C6375AC
:101D20006C6174656429210A0020213D200045452D
:101D300050524F4D20435243206D69736D6174635F
:101D400068202D202873746F726564292000205349
:101D5000697A653A2000496E6465783A2000204D22
:101D600061726C696E3D563535290A00284545502B
:101D7000524F4D3D00454550524F4D207665727390
:101D8000696F6E206D69736D6174636820002364F0
:101D90006566696E652044454641554C545F4B6409
:101DA000200023646566696E652044454641554CB4
:101DB000545F4B69200023646566696E6520444565
:101DC0004641554C545F4B702000504944204175AA
:101DD000746F74756E652066696E697368656421D9
:101DE0002050757420746865206C617374204B708A
:101DF0002C204B6920616E64204B6420636F6E73EE
:101E000074616E74732066726F6D2062656C6F779B
:101E100020696E746F20436F6E66696775726174B6
:101E2000696F6E2E680A00504944204175746F74C2
:101E3000756E65206661696C6564212074696D65E5
:101E40006F75740A00453120544845524D414C206D
:101E500052554E4157415900546865726D616C206E
:101E600052756E617761790045312048656174690A
:101E70006E67206661696C65640048656174696EAF
:101E800067206661696C656400504944204175743F
:101E90006F74756E65206661696C65642120546598
:101EA0006D706572617475726520746F6F206869FA
:101EB00067680A00204B643A2000204B693A2000F2
:101EC000204B703A20000A20436C617373696320D1
:101ED000504944200A002054753A2000204B753A9E
:101EE0002000206D61783A2000206D696E3A200054
:101EF00020643A200020626961733A20005049440E
:101F0000204175746F74756E65206661696C6564D7
:101F1000212054656D706572617475726520746FEF
:101F20006F20686967680A00504944204175746FE2
:101F300074756E652073746172740A005049442090
:101F40004175746F74756E65206661696C65642196
:101F500020426164206578747275646572206E75C4
:101F60006D6265720A004F66660A0046616465200C
:101F70004865696768742000426564204C65766531
:101F80006C696E6720004661696C656420746F201F
:101F9000656E61626C6520426564204C6576656C97
:101FA000696E670A004D65736820426564204C6560
:101FB00076656C20646174613A0A004D657368202F
:101FC000706F696E742063616E6E6F74206265203D
:101FD0007265736F6C7665640A004D343231206926
:101FE0006E636F727265637420706172616D657487
:101FF00065722075736167650A00496E7365727456
:102000002066696C616D656E7420616E6420736515
:102010006E64204D3130380A0053656E64204D31B6
:10202000303820746F2068656174206E6F7A7A6C26
:10203000650A00496E736572742066696C616D652E
:102040006E7420616E6420707265737320627574A3
:10205000746F6E20286F72204D313038290A004D80
:1020600038383820636F6F6C646F776E20726F75CD
:1020700074696E6520646F6E650A004D38340054D3
:102080006172676574206E6F742072656163686544
:10209000642C2071756575656420616E20617263C2
:1020A0000A00556C7472616261736520636F6F6CB6
:1020B000646F776E20737461727465640A002569B9
:1020C000730025696D2025697300256968202569DD
:1020D0006D202569730025696420256968202569BC
:1020E0006D2025697300256979202569642025699B
:1020F000682025696D2025697300656E71756575A9
:1021000065696E672022005072696E746572207373
:10211000746F707065642064756520746F206572DB
:10212000726F72732E20466978207468652065721C
:10213000726F7220616E6420757365204D39393974
:1021400020746F20726573746172742E2028546538
:102150006D70657261747572652069732072657344
:1021600065742E20536574206974206166746572ED
:102170002072657374617274696E67290A004E6F0C
:1021800020436865636B73756D2077697468206C94
:10219000696E65206E756D6265722C204C6173747A
:1021A000204C696E653A20004E6F20436865636B72
:1021B00073756D2077697468206C696E65206E7523
:1021C0006D6265722C204C617374204C696E653AA7
:1021D0002000636865636B73756D206D69736D6155
:1021E0007463682C204C617374204C696E653A20CE
:1021F000004C696E65204E756D62657220697320B2
:102200006E6F74204C617374204C696E65204E753E
:102210006D6265722B312C204C617374204C696E99
:10222000653A20004D313130004D333100534420A8
:1022300072656164206572726F720A00446F6E6528
:10224000207072696E74696E672066696C650A0039
:1022500020496E76616C6964206578747275646576
:102260007220000000A0C00000000000000000007C
:102270000057430000574300004D431000C90210AF
:10228000012C014001220170011801B0010E01F082
:102290000104015002FA00B002F0003003E600D061
:1022A00003DC009004D2007005C800A006BE000048
:1022B00008B400B009AA00D00BA000600E96006020
:1022C000118C000015820020197800C01D6E00A03E
:1022D000226400B0275A00902C500000314600E0E4
:1022E000343C0010383200903A2800603C1E00A0B8
:1022F0003D1400803E0A00203F000070012C019038
:10230000012701B0012201C0011D01F001180110D7
:1023100002130130020E016002090190020401C0A3
:1023200002FF000003FA004003F5008003F000D034
:1023300003EB002004E6007004E100E004DC004050
:1023400005D700C005D2004006CD00D006C80080E9
:1023500007C3003008BE00F008B900C009B400B0DF
:102360000AAF00B00BAA00D00CA500000EA00050D0
:102370000F9B00C01096005012910000148C00C0FA
:10238000158700B0178200B0197D00D01B780000BF
:102390001E730040206E0090226900F0246400400B
:1023A000275F0090295A00E02B5500102E50002086
:1023B000304B0010324600E033410090353C0010B5
:1023C00037370070383200A0392D00B03A2800A00D
:1023D0003B2300603C1E00103D1900903D1400108E
:1023E0003E0F00703E0A00C03E0500003F00004066
:1023F0003FFBFF803FF6FFC03FF1FF4531205448CF
:1024000045524D414C2052554E415741590042458D
:102410004420544845524D414C2052554E4157415D
:102420005900546865726D616C2052756E617761F8
:1024300079004531204572723A204D415854454D3E
:1024400050004572723A204D415854454D5020423B
:102450004544004D415854454D502074726967679A
:1024600065726564004531204572723A204D494ECF
:1024700054454D50004572723A204D494E54454DD9
:102480005020424544004D494E54454D50207472F1
:1024900069676765726564004D383420582059209B
:1024A0005A204500202F002042403A0020403A00A8
:1024B00000002100240027002A002D0030003300F6
:1024C00001010000040107010A01000022002500AB
:1024D00028002B002E00310034000201000005010D
:1024E00008010B01000020002300260029002C0019
:1024F0002F0032000001000003010601090105055B
:102500000505070508080808020202020A0A080869
:102510000404040401010101010101010303030397
:1025200003030303040707070C0C0C0C0C0C0C0C26
:102530000202020206060606060606060B0B0B0B37
:102540000B0B0B0B0102102020080810204010205C
:102550004080020102010804020101020408102067
:102560004080804020100804020180040201804065
:1025700020100804020108040201010204081020CE
:102580004080010204081020408000000A0B02096C
:102590000C0D0E08070304010000000000000000FD
:1025A000000000000000000000000000000000002B
:1025B00000000000000012111000000000000000E8
:1025C000000000000000000000000000000000000B
:1025D000627573793A2070617573656420666F72F5
:1025E00020696E7075740A00627573793A207061A3
:1025F0007573656420666F7220757365720A006278
:102600007573793A2070726F63657373696E670AC8
:10261000004A3135004B494C4C45442E20004B4973
:102620004C4C20636175736564206279204B494C82
:102630004C20627574746F6E2F70696E0A004B497E
:102640004C4C45442E20004B494C4C206361757323
:10265000656420627920746F6F206D7563682069EE
:102660006E6163746976652074696D65202D2063E1
:10267000757272656E7420636F6D6D616E643A2061
:10268000004D363030004A3131005072696E746549
:10269000722068616C7465642E206B696C6C2829EB
:1026A0002063616C6C6564210A000000A0C000001A
:1026B0000000000000000000484200004842000006
:1026C0008040000000005761726E696E673A2048D2
:1026D0006F6D696E672042756D702044697669730D
:1026E0006F72203C20310A000202040000A040006A
:1026F00000A0400000004000005C43000057430081
:10270000004D43FFFFFF486F74656E6420746F6F68
:1027100020636F6C640A00486F74656E6420746F88
:102720006F20636F6C640A007C3C3E5E2B3D3F2F44
:102730005B5D3B2C2A225C0043616E6E6F74206FE0
:1027400070656E2073756264697220005344206363
:10275000617264206F6B0A006F70656E526F6F74E8
:10276000206661696C65640A00766F6C756D652E14
:10277000696E6974206661696C65640A00457272ED
:102780006F723A00534420696E6974206661696C07
:102790000A006563686F3A00526573656E643A209B
:1027A000006F6B0020746F6F206C6F6E6720657810
:1027B00074727573696F6E2070726576656E74657C
:1027C000640A0020636F6C642065787472757369A5
:1027D0006F6E2070726576656E7465640A00FFFD29
:1027E000FCFAF8F6F4F2F0EEECEAE9E7E5E3E1E012
:1027F000DEDCDAD9D7D5D4D2D0CFCDCBCAC8C7C5C5
:10280000C3C2C0BFBDBCBAB9B7B6B4B3B2B0AFAD46
:10281000ACAAA9A8A6A5A4A2A1A09E9D9C9A99989D
:102820009795949392908F8E8D8B8A8988878684D2
:10283000838281807F7E7D7B7A79787776757473E9
:102840007271706F6E6D6C6B6A69686766656463E0
:102850006261605F5E5D5C5B5A59585857565554CB
:1028600053525150504F4E4D4C4B4A4A494847469F
:1028700046454443424241403F3E3E3D3C3B3B3A5D
:1028800039383837363535343332323130302F2E0F
:102890002E2D2C2B2B2A29292827272625252423B2
:1028A0002322212120201F1E1E1D1C1C1B1B1A1948
:1028B00019181817161615151413131212111110D2
:1028C0000F0F0E0E0D0D0C0C0B0A0A090908080754
:1028D0000706060505040403030202010000545222
:1028E00049474745524544006F70656E003A2000E5
:1028F00066696C616D656E74007A325F6D696E0039
:102900007A5F6D696E00795F6D696E00785F6D69E1
:102910006E005265706F7274696E6720656E6473C5
:10292000746F70207374617475730A000A4D656169
:10293000737572656420706F696E74733A0A005A19
:10294000206F66667365743A20004E756D20582CB2
:10295000593A20352C350A00000000010000000122
:10296000000080005555550000004000333333000F
:10297000AAAA2A004992240000002000C7711C0066
:1029800099991900D1451700555515003BB1130011
:102990002449120011111100000010000F0F0F0048
:1029A000E3380E0043790D00CCCC0C00C3300C0092
:1029B000E8A20B0064210B00AAAA0A00703D0A00DD
:1029C0009DD80900427B090092240900DCD308004D
:1029D000888808001042080000000800F0C10700C5
:1029E0008787070075500700711C07003EEB060043
:1029F000A1BC06006990060066660600703E0600EF
:102A00006118060017F4050074D105005BB00500DD
:102A1000B290050062720500555505007839050031
:102A2000B81E0500050505004EEC040087D404001F
:102A3000A1BD040090A7040049920400C17D0400D8
:102A4000EE690400C7560400444404005C320400EC
:102A50000821040041100400000004003FF00300BE
:102A6000F8E0030026D20300C3C30300CCB5030083
:102A70003AA803000A9B0300388E0300C0810300BC
:102A80009F750300D0690300505E03001D530300CF
:102A900034480300913D030033330300162903003B
:102AA000381F030097150300300C030003030300D5
:102AB0000BFA020049F10200BAE802005CE00200F1
:102AC0002DD802002DD0020059C80200B0C002006B
:102AD00031B90200DAB10200AAAA0200A0A30200E2
:102AE000BC9C0200FA9502005C8F0200DF880200A5
:102AF00082820200457C02002776020027700200D5
:102B0000436A02007C640200D05E02003F5902006A
:102B1000C853020048617264636F64656420446551
:102B20006661756C742053657474696E6773204CAC
:102B30006F616465640A00D0070000D00700003CA4
:102B4000000000102700000000FA430000FA4300D4
:102B500000C0400000C8420000A0420000A04200A7
:102B600000C8430000C04320286D6D290020204D7F
:102B700036303320002055004C0046696C616D658D
:102B80006E74206C6F61642F756E6C6F6164206C65
:102B9000656E677468733A0A0020204D3930302022
:102BA0004B004C696E65617220416476616E6365AD
:102BB0003A0A0020440020490020204D33303120C3
:102BC00050005049442073657474696E67733A0A03
:102BD00000205A0020204D36363600456E6473744E
:102BE0006F702061646A7573746D656E743A0A0063
:102BF000205A0020590020204732392053332058D2
:102C000000205A0020204D3432302053004D65738F
:102C10006820426564204C6576656C696E673A0A87
:102C200000205A0020590020204D32303620580014
:102C3000486F6D65206F66667365743A0A002045BB
:102C400000205A0020590020580020540020530032
:102C500020204D32303520510020453C6D61785F99
:102C6000655F6A65726B3E0020583C6D61785F78E5
:102C70005F6A65726B3E20593C6D61785F795F6A6F
:102C800065726B3E205A3C6D61785F7A5F6A65724F
:102C90006B3E00416476616E6365643A20513C6D21
:102CA000696E5F7365676D656E745F74696D655F8E
:102CB00075733E20533C6D696E5F66656564726135
:102CC00074653E20543C6D696E5F74726176656C0C
:102CD0005F66656564726174653E00205400205231
:102CE0000020204D323034205000416363656C6514
:102CF000726174696F6E2028756E6974732F7332F8
:102D0000293A20503C7072696E745F616363656C30
:102D10003E20523C726574726163745F61636365E7
:102D20006C3E20543C74726176656C5F61636365D0
:102D30006C3E0A00204500205A0020590020204DFA
:102D40003230312058004D6178696D756D204163D6
:102D500063656C65726174696F6E2028756E697445
:102D6000732F7332293A0A00204500205A00205957
:102D70000020204D3230332058004D6178696D7548
:102D80006D206665656472617465732028756E696F
:102D900074732F73293A0A00204500205A002059E5
:102DA0000020204D39322058005374657073207014
:102DB000657220756E69743A0A0020204D323030F9
:102DC0002044300A0020204D32303020440020447E
:102DD000697361626C65640A0046696C616D656E59
:102DE000742073657474696E67733A0020204732EB
:102DF00031202020203B002066697273740A005A3B
:102E00000059005800486F6D6520004A3233004D6C
:102E100032350047393000473120452D33204631C7
:102E2000383030004739310057726974696E672055
:102E3000746F2066696C653A20006F70656E20665D
:102E400061696C65642C2046696C653A20006F707E
:102E5000656E206661696C65642C2046696C653A14
:102E6000200046696C652073656C65637465640A4F
:102E7000002053697A653A200046696C65206F70BE
:102E8000656E65643A20002066696C653A200064CE
:102E90006F696E67006672657368004E6F77200019
:102EA000454E4420535542524F5554494E450A0011
:102EB0002220706F73002220706172656E743A2256
:102EC00000535542524F5554494E452043414C4CB6
:102ED000207461726765743A22004B494C4C45443A
:102EE0002E2000747279696E6720746F2063616CA4
:102EF0006C207375622D67636F64652066696C650D
:102F000073207769746820746F6F206D616E79200B
:102F10006C6576656C732E204D4158206C65766526
:102F20006C2069733A006F70656E206661696C652C
:102F3000642C2046696C653A20004572726F7220DD
:102F400077726974696E6720746F20454550524FDF
:102F50004D210A00556E6B6E6F776E20636F6D6D3D
:102F6000616E643A202200496E736572742066694E
:102F70006C616D656E7420616E6420707265737330
:102F800020627574746F6E20286F72204D31303856
:102F9000290A002CFFFFFFFFFF0001010101016270
:102FA00065640A002C2073797374656D2073746FE7
:102FB0007070656421204865617465725F49443AA8
:102FC00020004265642068656174696E67206661EF
:102FD000696C65640048656174696E672066616943
:102FE0006C65640045312048656174696E672066D0
:102FF00061696C65640048656174696E672066612B
:10300000696C6564004B494C4C45442E2000FCEA39
:10301000DBEA11241FBECFEFD1E2DEBFCDBF00E05F
:103020000CBF14E0A0E0B2E0E4EEF2EF01E00BBF71
:1030300002C007900D92AC33B107D9F72CE1ACE395
:10304000B4E001C01D92A436B207E1F718E1C8E070
:10305000D8E100E006C021970109802FFE010E94FF
:10306000CAF8C730D10780E00807A9F70E94DCE45E
:103070000C9461F90C9400002F923F924F925F9252
:103080006F927F928F929F92AF92BF92CF92DF9278
:10309000EF92FF920F931F93CF93DF93CDB7DEB7DD
:1030A000A7970FB6F894DEBF0FBECDBFC0905F04E8
:1030B000D0906004E0906104F090620420E030E081
:1030C00040EA50E4C701B6010E9451F187FD52C1A8
:1030D00020E030E041E953E4C701B6010E94F4F773
:1030E00018160CF447C11092B8111092B7118091C4
:1030F00009014091B611042E000C550B817021E09E
:10310000822790E04817590709F433C080910901DC
:10311000817028272093B61181111BC00E944CAFEB
:10312000E5EFF8E084918F01882351F0082E000C20
:10313000990B0E9447AF0F5F1F4FF8018491F4CFA6
:103140008DE090E00E9447AF8AE090E00E9447AF98
:1031500010C0E9EFF8E084918F01882389F3082EED
:10316000000C990B0E9447AF0F5F1F4FF80184912D
:10317000F4CF80911D108330C1F12CF4882369F0C5
:103180008130F1F0ACC0843059F1853009F0A7C02E
:10319000E1EEF8E084918F0169C080919A0D882357
:1031A00009F49DC081E080931D100E944E986093A9
:1031B000AD117093AE118093AF119093B0118FC089
:1031C00080919A0D81118BC08091660F882311F038
:1031D00082E049C080911E10882309F4F6C07FC0A8
:1031E0008091F7118823A1F37AC0EDEEF8E0849185
:1031F0008F01882351F0082E000C990B0E9447AFD5
:103200000F5F1F4FF8018491F4CF8DE090E00E9492
:1032100047AF8AE090E00E9447AF80919A0D8111FC
:103220005EC080911C0D90911D0D891B8F7009F05F
:1032300056C080911E10823088F411E010931E1049
:103240008091B91181110AC085EE98E09093A01B7E
:1032500080939F1B0E949E911093B9118091F7114A
:103260008111B6CF84E080931D1039C0882351F0BE
:10327000082E000C990B0E9447AF0F5F1F4FF801FB
:103280008491F4CF8DE090E00E9447AF8AE090E017
:103290000E9447AF90919A0D911108C080911C0D2A
:1032A00020911D0D821B8F7009F4A2C08091B9116D
:1032B000811115C0911113C080911C0D90911D0DAD
:1032C000891B8F7009F499C00AC08DE090E00E94BC
:1032D00047AF8AE090E00E9447AF10921E108091A5
:1032E0009F119091A01103974CF57CE8272E74E074
:1032F000372EE0E68E2EEAEE9E2EA12CB12C82E037
:1033000093E10E94753F18161906C4F480919F112D
:103310009091A011049794F482E093E10E94393FC8
:103320008093A511E091A611F091A7118A3019F0B0
:103330008D3009F0D7C0309709F0DDC080919F1122
:103340009091A011009711F40C94F029019790939B
:10335000A01180939F118091A1119091A2110196CB
:1033600064E070E00E94B7F89093A2118093A111DD
:103370000C94F0298091B7119091B8118136FAEE32
:103380009F07E8F01092B8111092B711EDEFF8E036
:1033900084918F01882351F0082E000C990B0E9414
:1033A00047AF0F5F1F4FF8018491F4CF8DE090E09D
:1033B0000E9447AF8AE090E00E9447AF98CE019606
:1033C0009093B8118093B71192CE10921D10E1EF37
:1033D000F8E084918F01882309F477CF082E000C40
:1033E000990B0E9447AF0F5F1F4FF8018491F3CFF5
:1033F00010921D1010921E1059CF8CEC98E09093F3
:10340000A01B80939F1B0E949E910E9426D2811137
:1034100053C080E090E0A0EAB0E488A399A3AAA3F7
:10342000BBA320E030E048EC51E460915704709178
:1034300058048091590490915A040E94CEF56B0172
:103440007C0120E030E04DE453E40E9451F187FD1F
:1034500006C0C12CD12CFDE4EF2EF3E4FF2EC9826F
:10346000DA82EB82FC82BE01605E7F4FCE01019664
:103470000E94568F80E090E0A8ECB2E48CA39DA35C
:10348000AEA3BFA380E090E0ADE4B3E488A399A32A
:10349000AAA3BBA380E090E0A0EAB0E489839A836A
:1034A000AB83BC83AE014C5D5F4FBE01605E7F4F5E
:1034B000CE0101960E94358F88EC98E09093A01B76
:1034C00080939F1B0E949E9184EC98E09093A01B98
:1034D00080939F1B0E949E9110921E1081E080930A
:1034E000B911FDCE8A3309F426CFEF35F10514F476
:1034F0000C94C22720CF8091A3119091A41120E6B3
:10350000289F8001299F100D1124C801835E9F4EC2
:10351000E80FF91F12829801215E3F4E790161E4A4
:1035200070E0C9010E941EF9009711F40C94A627BF
:103530009093A9118093A8118E199F09800F911F54
:1035400060E070E0805E9F4E0E9452ED0E9412F794
:10355000CB01770FAA0BBB0B8232910510F00C94B4
:10356000A627FC018827EE58FF4F8F4F0C94CAF80E
:10357000EFEBF8E084918F01882351F0082E000CC6
:10358000990B0E9447AF0F5F1F4FF8018491F4CF52
:1035900020E030E040E05FE360915F047091600400
:1035A00080916104909162041EC0EAEBF8E084917E
:1035B0008F01882351F0082E000C990B0E9447AF11
:1035C0000F5F1F4FF8018491F4CF60914D0470910B
:1035D0004E04072E000C880B990B0E9457F120E037
:1035E00030E040E05FE30E94CEF50E9412F7CB018D
:1035F0000E949F450E945AD18DE090E00E9447AF03
:103600008AE090E00E9447AF0C94A627E5EBF8E033
:1036100084918F01882351F0082E000C990B0E9491
:1036200047AF0F5F1F4FF8018491F4CF20E030E0E7
:1036300040E05FE36091490470914A0480914B043B
:1036400090914C04D0CFE0EBF8E084918F01882377
:1036500051F0082E000C990B0E9447AF0F5F1F4FCF
:10366000F8018491F4CF6091470470914804B1CF80
:1036700020910B0B30910C0B44E6429FC001439FFD
:10368000900D11246FEF70E00E94B7F88B01653642
:10369000710510F004E610E0EBEAF8E084917F0198
:1036A000882359F0082E000C990B0E9447AFFFEFBA
:1036B000EF1AFF0AF7018491F3CFB80180E090E0A0
:1036C0000C94E623E7EAF8E084918F01882351F017
:1036D000082E000C990B0E9447AF0F5F1F4FF80197
:1036E0008491F4CF80E290E00E9447AFE3EAF8E0F3
:1036F00084918F01882351F0082E000C990B0E94B1
:1037000047AF0F5F1F4FF8018491F4CF60914F04D2
:103710007091500480915104909152040E945BD1A9
:1037200080E290E00E9447AFEFE9F8E084918F01DA
:10373000882351F0082E000C990B0E9447AF0F5FB1
:103740001F4FF8018491F4CF609153047091540499
:1037500080915504909156040E945BD180E290E0E4
:103760000E9447AFEBE9F8E084918F01882351F084
:10377000082E000C990B0E9447AF0F5F1F4FF801F6
:103780008491F4CF6091570470915804809159044A
:1037900090915A040E945BD180E290E0D9C680915A
:1037A0009A0D882309F450C0E6E9F8E084918F016E
:1037B000882351F0082E000C990B0E9447AF0F5F31
:1037C0001F4FF8018491F4CF80919B0D882359F10C
:1037D0008091660F882329F180911010909111102B
:1037E000A0911210B09113100097A105B105C1F07E
:1037F000BC01CD016D597F4F8F4F9F4F24E630E0C4
:1038000040E050E00E9470F5609114107091151026
:1038100080911610909117100E9470F5822F01C0B0
:1038200080E090E0E5CEE2E9F8E084918F01882322
:1038300009F4E2CE082E000C990B0E9447AF0F5FEF
:103840001F4FF8018491F3CFEAE8F8E084918F01EB
:10385000882309F4D1CE082E000C990B0E9447AFA3
:103860000F5F1F4FF8018491F3CFE5E8F8E08491F2
:103870008F01882351F0082E000C990B0E9447AF4E
:103880000F5F1F4FF8018491F4CF8091AD1190919B
:10389000AE11A091AF11B091B011892B8A2B8B2B57
:1038A00009F477C00E944E98A50194010E9470F51A
:1038B00069017A016091AD117091AE118091AF11E3
:1038C0009091B011A50194010E9470F58601021B30
:1038D000130BC8016CE370E00E94A3F8CB01992799
:1038E000EAE0F0E0BF010E94B7F8282FCB01BF014A
:1038F0000E94B7F8805D80933D04205D20933E04D4
:1039000010923F048DE394E00E945AD180E290E04F
:103910000E9447AFE3E8F8E084917F01882359F0E3
:10392000082E000C990B0E9447AFFFEFEF1AFF0A19
:10393000F7018491F3CF80E290E00E9447AFC80185
:103940006CE370E00E94A3F86AE070E00E94B7F8B0
:10395000605D60933D04805D80933E0410923F045F
:103960008DE394E00E945AD180E290E00E9447AF3C
:10397000E1E8F8E084918F01882309F43DCE082E18
:10398000000C990B0E9447AF0F5F1F4FF801849105
:10399000F3CF80E290E00E9447AFE9E7F8E084913E
:1039A0008F01882309F428CE082E000C990B0E9461
:1039B00047AF0F5F1F4FF8018491F3CF1092D811DA
:1039C0008091090180FF11C0E5E7F8E084918F0143
:1039D000882309F411CE082E000C990B0E9447AFE2
:1039E0000F5F1F4FF8018491F3CF83E50E94F0D061
:1039F000882341F00E940BD10E9417F77093AC11FD
:103A00006093AB11E1E7F8E084918F01882351F0D6
:103A1000082E000C990B0E9447AF0F5F1F4FF80153
:103A20008491F4CF8DE090E00E9447AF8AE090E06F
:103A30000E9447AF8091F611882309F4A1C28091BA
:103A4000AB119091AC118430910509F4D2C040F4CF
:103A5000892B09F03BC4E1E9F6E084918F010CC0A9
:103A60008830910509F47EC10C9709F02FC4E9E074
:103A7000F5E084918F012FC2882351F0082E000CAD
:103A8000990B0E9447AF0F5F1F4FF8018491F4CF4D
:103A90008DE090E00E9447AF8AE090E00E9447AF3F
:103AA000E6E8F6E084918F01882351F0082E000C9F
:103AB000990B0E9447AF0F5F1F4FF8018491F4CF1D
:103AC0008DE090E00E9447AF8AE090E00E9447AF0F
:103AD000EAE7F6E084918F01882351F0082E000C6C
:103AE000990B0E9447AF0F5F1F4FF8018491F4CFED
:103AF0008DE090E00E9447AF8AE090E00E9447AFDF
:103B0000EEE6F6E084918F01882351F0082E000C38
:103B1000990B0E9447AF0F5F1F4FF8018491F4CFBC
:103B20008DE090E00E9447AF8AE090E00E9447AFAE
:103B3000E0E6F6E084918F01882351F0082E000C16
:103B4000990B0E9447AF0F5F1F4FF8018491F4CF8C
:103B50008DE090E00E9447AF8AE090E00E9447AF7E
:103B6000E2E5F6E084918F01882351F0082E000CE5
:103B7000990B0E9447AF0F5F1F4FF8018491F4CF5C
:103B80008DE090E00E9447AF8AE090E00E9447AF4E
:103B9000E5E4F6E084918F01882351F0082E000CB3
:103BA000990B0E9447AF0F5F1F4FF8018491F4CF2C
:103BB0008DE090E00E9447AF8AE090E00E9447AF1E
:103BC000E8E3F6E084918F01882351F0082E000C81
:103BD000990B0E9447AF0F5F1F4FF8018491F4CFFC
:103BE0008DE090E00E9447AF8AE090E00E9447AFEE
:103BF0006DC3EAE2F6E084918F01882351F0082E2C
:103C0000000C990B0E9447AF0F5F1F4FF801849182
:103C1000F4CF8DE090E00E9447AF8AE090E00E94F0
:103C200047AFECE1F6E084918F01882351F0082E34
:103C3000000C990B0E9447AF0F5F1F4FF801849152
:103C4000F4CF8DE090E00E9447AF8AE090E00E94C0
:103C500047AFE6E0F6E084918F01882351F0082E0B
:103C6000000C990B0E9447AF0F5F1F4FF801849122
:103C7000F4CF8DE090E00E9447AF8AE090E00E9490
:103C800047AFE0EFF5E084918F01882351F0082ED3
:103C9000000C990B0E9447AF0F5F1F4FF8018491F2
:103CA000F4CF8DE090E00E9447AF8AE090E00E9460
:103CB00047AFEEEDF5E084918F01882351F0082E97
:103CC000000C990B0E9447AF0F5F1F4FF8018491C2
:103CD000F4CF8DE090E00E9447AF8AE090E00E9430
:103CE00047AFECECF5E084918F01882351F0082E6A
:103CF000000C990B0E9447AF0F5F1F4FF801849192
:103D0000F4CF8DE090E00E9447AF8AE090E00E94FF
:103D100047AFEEEBF5E084918F01882351F0082E38
:103D2000000C990B0E9447AF0F5F1F4FF801849161
:103D3000F4CF8DE090E00E9447AF8AE090E00E94CF
:103D400047AFE0EBF5E084918F01882309F448CF79
:103D5000082E000C990B0E9447AF0F5F1F4FF80110
:103D60008491F3CFE9EAF5E084918F01882351F043
:103D7000082E000C990B0E9447AF0F5F1F4FF801F0
:103D80008491F4CF8DE090E00E9447AF8AE090E00C
:103D90000E9447AFE2EAF5E084918F01882351F059
:103DA000082E000C990B0E9447AF0F5F1F4FF801C0
:103DB0008491F4CF8DE090E00E9447AF8AE090E0DC
:103DC0000E9447AFEBE8F5E084918F01882351F022
:103DD000082E000C990B0E9447AF0F5F1F4FF80190
:103DE0008491F4CF8DE090E00E9447AF8AE090E0AC
:103DF0000E9447AFE4E7F5E084918F01882351F0FA
:103E0000082E000C990B0E9447AF0F5F1F4FF8015F
:103E10008491F4CF8DE090E00E9447AF8AE090E07B
:103E20000E9447AFEDE5F5E084918F01882351F0C2
:103E3000082E000C990B0E9447AF0F5F1F4FF8012F
:103E40008491F4CF8DE090E00E9447AF8AE090E04B
:103E50000E9447AFE6E4F5E084918F01882351F09A
:103E6000082E000C990B0E9447AF0F5F1F4FF801FF
:103E70008491F4CF8DE090E00E9447AF8AE090E01B
:103E80000E9447AFE3E3F5E084918F01882351F06E
:103E9000082E000C990B0E9447AF0F5F1F4FF801CF
:103EA0008491F4CF8DE090E00E9447AF8AE090E0EB
:103EB0000E9447AFE0E2F5E084918F01882309F486
:103EC0008FCE082E000C990B0E9447AF0F5F1F4F3B
:103ED000F8018491F3CF882351F0082E000C990B40
:103EE0000E9447AF0F5F1F4FF8018491F4CF8DE020
:103EF00090E00E9447AF8AE090E00E9447AFE2EF77
:103F0000F4E084918F01882351F0082E000C990B66
:103F10000E9447AF0F5F1F4FF8018491F4CF8DE0EF
:103F200090E00E9447AF8AE090E00E9447AFEAED40
:103F3000F4E084918F01882351F0082E000C990B36
:103F40000E9447AF0F5F1F4FF8018491F4CF8DE0BF
:103F500090E00E9447AF8AE090E00E9447AFE2EC19
:103F6000F4E084918F01882309F43ACE082E000CE6
:103F7000990B0E9447AF0F5F1F4FF8018491F3CF59
:103F800080919B0D882309F478C181E080931810FB
:103F900010921A10109219108AEE9DE00E94CAA881
:103FA0008BE1EAEEFDE0DE01159601900D928A9517
:103FB000E1F78091E80D9091E90D9C838B8385EF6B
:103FC00092E09A83898340E050E0BE016F5F7F4FAB
:103FD00080E090E00E943EB1CE0101960E94C79F12
:103FE000C0901910D0901A100091AB111091AC1123
:103FF000C601801B910B049720F06801F3E0CF0EFF
:10400000D11C53EB452E54E0552E64EA662E64E035
:10401000762EC016D10608F459C10115110509F014
:104020009DC06EE97DE08AEE9DE00E9492A76BE163
:1040300073E08EE99DE00E9429F9892B09F048C0C0
:10404000F201849143EBE42E44E0F42E882359F0EE
:10405000082E000C990B0E9447AFFFEFEF1AFF0AE2
:10406000F7018491F3CF8DE090E00E9447AF8AE0A2
:1040700090E00E9447AFF301849134EAE32E34E0EC
:10408000F32E882359F0082E000C990B0E9447AF9D
:10409000FFEFEF1AFF0AF7018491F3CF8DE090E074
:1040A0000E9447AF8AE090E00E9447AF80E090E036
:1040B0000E9454D1E4E9F4E084917F012FEFE21AE9
:1040C000F20A882309F4D6C00E94ED90F701F4CFDC
:1040D000E0E9F4E084917F01882359F0082E000C78
:1040E000990B0E9447AFFFEFEF1AFF0AF701849187
:1040F000F3CF8DE090E00E9447AF8AE090E00E940D
:1041000047AFF10184912CE8E22E24E0F22E8823BF
:1041100059F0082E000C990B0E9447AFFFEFEF1AE1
:10412000FF0AF7018491F3CF8DE090E00E9447AF42
:104130008AE090E00E9447AF80E090E00E9454D176
:10414000E7E8F4E084917F012FEFE21AF20A882376
:1041500009F490C00E94ED90F701F4CF60E070E0A8
:10416000C80101970E948ED280919C0D882309F48A
:104170005AC0E5E8F4E084917F01882359F0082EC5
:10418000000C990B0E9447AFFFEFEF1AFF0AF701EF
:104190008491F3CF8EE99DE00E945AD18DE090E0AA
:1041A0000E9447AF8AE090E00E9447AFE3E8F4E066
:1041B00084917F01882359F0082E000C990B0E94EE
:1041C00047AFFFEFEF1AFF0AF7018491F3CF8BEAB5
:1041D0009DE00E945AD18DE090E00E9447AF8AE0B6
:1041E00090E00E9447AFC8010E9454D1E1E8F4E09A
:1041F00084917F012FEFE21AF20A882321F00E94B6
:10420000ED90F701F5CF9BEAE92E9DE0F92EF7013D
:1042100081917F01882319F00E94ED90F8CF8AE008
:104220000E94ED9027C08EE99DE00E945AD18DE05A
:1042300090E00E9447AF8AE090E00E9447AF8BEA8F
:104240009DE00E945AD18DE090E00E9447AF8AE045
:1042500090E00E9447AFC8010E9454D18BEAE82E3B
:104260008DE0F82EF70181917F018823C1F20E9431
:10427000ED90F8CF0F5F1F4FCCCEE2E7F4E08491D2
:104280008F01882351F0082E000C990B0E9447AF34
:104290000F5F1F4FF8018491F4CF8DE090E00E94F2
:1042A00047AF8AE090E00E9447AFE3E6F4E08491F4
:1042B0008F01882309F494CC082E000C990B0E94DE
:1042C00047AF0F5F1F4FF8018491F3CFEDE6F8E0A1
:1042D00084918F01882309F48FC9082E000C990B53
:1042E0000E9447AF0F5F1F4FF8018491F3CF809179
:1042F0009A0D882319F00E9451D028C610921E10E2
:10430000B7C080911D10823019F0833609F088C043
:1043100010911E10123009F444C028F4112379F0D2
:10432000113011F165C0143009F45CC008F44DC0BF
:10433000153009F05DC083E080931D1057C00E94C6
:104340004E986093AD117093AE118093AF1190931E
:10435000B01180919B0D882319F081E080939A0D14
:1043600081E080931D1044C08BE594E09093A01BE6
:1043700080939F1B0E949E911092B9110E944E98AB
:104380006093AD117093AE118093AF119093B01103
:1043900080919B0D811110939A0D81E080931D10E7
:1043A0001EC086E594E09093A01B80939F1B0E9403
:1043B0009E911092380210923C0480919B0D8823AC
:1043C00071F081E080939A0D0AC08FE594E090939C
:1043D000A01B80939F1B0E949E911092B911109276
:1043E0001E1006C083E080931D1082E080931E1093
:1043F000E9E6F8E084918F01882351F0082E000C43
:10440000990B0E9447AF0F5F1F4FF8018491F4CFC3
:104410008DE090E00E9447AF8AE090E00E9447AFB5
:1044200080914604882309F491C581E594E0909336
:10443000A01B80939F1B0E949E910E94BB9F109285
:10444000460410923C041092380280911E10843071
:1044500018F0825080931E1083E080931D1076C563
:1044600080919A0D811104C080911D10833619F43A
:104470000E9493B06BC5E5E6F8E084918F01882334
:1044800051F0082E000C990B0E9447AF0F5F1F4F91
:10449000F8018491F4CF8DE090E00E9447AF8AE06C
:1044A00090E00E9447AF10921D1010921E104EC552
:1044B0008CE598E00E94EA9F80911D10833609F4F4
:1044C00045C50091A8111091A9117801F4E0EF0EF3
:1044D000F11C6AE270E0C7010E941EF9F801248114
:1044E0002F3221F4B8016B5F7F4F03C02C3331F4BE
:1044F000B70188ED91E10E9432F97EC81092D8117F
:10450000009719F0FC01319710828091A8119091C9
:10451000A91140E061E004960E948CD38091660F5F
:104520008823C9F0E8E5F8E084918F01882351F0F1
:10453000082E000C990B0E9447AF0F5F1F4FF80128
:104540008491F4CF8DE090E00E9447AF8AE090E044
:104550000E9447AF51C8E4E5F8E084918F018823B9
:1045600089F3082E000C990B0E9447AF0F5F1F4F75
:10457000F8018491F4CF80911C0D90911D0D891B41
:104580008F7009F0E3C480911D10823009F4DEC4FD
:10459000833609F4DBC48091660F81110BC5D6C444
:1045A00083E50E94F0D0811126C083E40E94F0D000
:1045B000882309F4CBC480911C0D90911D0D891B9B
:1045C0008F7009F0C3C420E030E040E251E4609114
:1045D0005704709158048091590490915A040E9494
:1045E00051F187FF08C089E498E09093A01B809365
:1045F0009F1B0E949E910E940BD120E030E0A901F8
:104600000E9451F187FD10C00E940BD120E030E8DC
:1046100049E853E40E94F4F718164CF00E940BD1BD
:104620000E9417F7CB0105C080E090E002C083E153
:1046300091E00E94089D8AC483E50E94F0D08823FF
:1046400009F484C40E940BD120E030E0A9010E944B
:1046500051F187FD10C00E940BD120E030E046E10F
:1046600053E40E94F4F718164CF00E940BD10E94FC
:1046700017F7CB0105C080E090E002C086E990E02A
:104680000E94D54563C483E50E94F0D08823E1F001
:104690000E940BD120E030E04FE753E40E94B6F1D6
:1046A00020E030E048EC52E40E94AAF60E9417F79E
:1046B0006F3F710519F010F06FEF70E070930C0B05
:1046C00060930B0B0C94FC1A8FEF90E090930C0B03
:1046D00080930B0B0C94FC1A80911C0D90911D0D76
:1046E000891B8F7011F00C94FC1A80919A0D811126
:1046F0000C94FC1A0E94E1865F9A809145048E7F9B
:10470000809345048A9A479A809145048D7F8093CF
:104710004504809108018095817080930601479A35
:10472000809145048B7F80934504129A0C94FC1A67
:1047300083E50E94F0D0882319F10E940BD120E07C
:1047400030E040E252E40E9451F187FD0FC00E9428
:104750000BD120E030EC49E754E40E94F4F718163E
:1047600044F00E940BD10E9412F705C068E270E08D
:1047700002C067EE73E07093010260930002E6C32B
:10478000E3E4F8E084918F01882351F0082E000CB7
:10479000990B0E9447AF0F5F1F4FF8018491F4CF30
:1047A000C0900002D09001020D2C000CEE08FF0812
:1047B000F7FE0EC06DE282E093E10E94EC3E6627B8
:1047C0007727CB016C197D098E099F094AE003C048
:1047D0004AE0C701B6010E9414D10C94FC1A8091E2
:1047E0001C0D90911D0D891B8F7009F0AFC3809136
:1047F0001D10823009F4AAC3833609F075C3A6C31D
:1048000080911C0D90911D0D891B8F7011F00C94DF
:10481000FC1A80911D10823011F40C94FC1A83361E
:1048200009F000C40C94FC1A80911C0D90911D0D90
:10483000891B8F7009F08AC380911D10823009F4A2
:1048400085C3833609F044C581C380911C0D9091C6
:104850001D0D891B8F7009F079C380911D10823066
:1048600009F474C3833609F069C570C380911C0DC7
:1048700090911D0D891B8F7009F068C380911D10E8
:10488000823009F463C3833609F08EC55FC380911B
:10489000D811811103C00E944CAF4BC28E3271F50A
:1048A0008091D9118E3209F0CDC180913B0F8823C0
:1048B00009F43FC2815080933B0F882361F090E060
:1048C00001974FE1489F9001499F300D1124C90184
:1048D0008B5F914F02C087EC9DE02BE1FC01349689
:1048E000AAEEBDE001900D922A95E1F7FC018281CC
:1048F00093819093E90D8093E80D1BC28C3309F0EE
:10490000A1C16DE173E088ED91E10E9429F9892B45
:1049100021F481E08093F6110CC26CE273E088ED23
:1049200091E10E9429F9892B79F4EDE2F4E0849178
:104930008F010F5F1F4F882321F00E94ED90F80137
:10494000F6CF8FE094E01FC163E473E088ED91E15E
:104950000E9429F9892B79F4EBEEF3E084918F0121
:104960000F5F1F4F882321F00E94ED90F801F6CFD2
:1049700088ED93E008C16AE573E088ED91E10E945B
:1049800029F9892B31F5EDEBF3E084918F010F5F6D
:104990001F4F882321F00E94ED90F801F6CF88EB9D
:1049A00093E09093A01B80939F1B0E949E9184E5AF
:1049B00094E099A388A389E690E09A838983BE0155
:1049C000605E7F4FCE0101960E941DD08DE796E07C
:1049D0002DC068E673E088ED91E10E9429F9892BEA
:1049E00099F5E8E9F3E084918F010F5F1F4F882369
:1049F00021F00E94ED90F801F6CF83E993E09093C7
:104A0000A01B80939F1B0E949E918DE796E099A327
:104A100088A389E690E09A838983BE01605E7F4F18
:104A2000CE0101960E941DD084E594E099A388A34D
:104A300082ED90E09A838983BE01605E7F4FCE0154
:104A400001960E941DD075C16BE773E088ED91E17E
:104A50000E9429F9892B79F4E8E7F3E084918F012A
:104A60000F5F1F4F882321F00E94ED90F801F6CFD1
:104A70008FE693E088C069E873E088ED91E10E94D9
:104A800029F9892B71F40CE413E0F801849188234F
:104A900029F00F5F1F4F0E94ED90F7CF85E493E060
:104AA00072C06FE973E088ED91E10E9429F9892BCA
:104AB00079F4E6E2F3E084918F010F5F1F4F8823C2
:104AC00021F00E94ED90F801F6CF8FE193E05BC0FA
:104AD00061EB73E088ED91E10E9429F9892B79F46B
:104AE000E7E0F3E084918F010F5F1F4F882321F0EF
:104AF0000E94ED90F801F6CF86EF92E044C06CEB97
:104B000073E088ED91E10E9429F9892B79F4EDEDAC
:104B1000F2E084918F010F5F1F4F882321F00E94E4
:104B2000ED90F801F6CF8BEC92E02DC068EC73E0CD
:104B300088ED91E10E9429F9892B79F4E0EBF2E00C
:104B400084918F010F5F1F4F882321F00E94ED9009
:104B5000F801F6CF8EE992E016C066ED73E088EDBD
:104B600091E10E9429F9892BA9F4E4E8F2E084910B
:104B70008F010F5F1F4F882321F00E94ED90F801F5
:104B8000F6CF83E792E09093A01B80939F1B0E9437
:104B90009E91CFC063EE73E088ED91E10E9429F908
:104BA000892BD9F4EFE4F2E084918F010F5F1F4F5E
:104BB000882321F00E94ED90F801F6CF82E08093E7
:104BC0001E1085E292E09093A01B80939F1B0E9491
:104BD0009E9183E080931D10ACC06AEF73E088ED76
:104BE00091E10E9429F9892B09F5EAE2F2E084912A
:104BF0008F010F5F1F4F882321F00E94ED90F80175
:104C0000F6CF86E594E09093A01B80939F1B0E94B3
:104C10009E911092380210923C0480919B0D882343
:104C200009F487C081E080939A0D83C062E174E04B
:104C300088ED91E10E9429F9892B09F07AC0109240
:104C4000F61177C01D8218861C821B8285EF92E0C8
:104C50009A8389838091ED0D811103C067EC7DE01B
:104C600002C066EE7DE06115710519F06C5F7F4F43
:104C700002C060E070E021E048ED51E1CE01059610
:104C80000E94FFAC882361F18BE1FE013596AAEE0C
:104C9000BDE001900D928A95E1F72B813C81309324
:104CA000E90D2093E80D80913B0F8A3008F03DC05C
:104CB00091E0980F90933B0FFFE18F9FC00111246B
:104CC000DC01A75FB14F4BE1EAEEFDE001900D92F0
:104CD0004A95E1F7FC01EB5FF14F3383228325C056
:104CE000E2E9F7E284918F010F5F1F4F882321F0E3
:104CF0000E94ED90F801F6CFEFE0F2E084918F0191
:104D00000F5F1F4F882321F00E94ED90F801F6CF2E
:104D100008ED11E1F80181918F01882319F00E94BB
:104D2000ED90F8CF8AE00E94ED90CE0101960E94AE
:104D3000C79F1092D8118091090180FF07C1E7E851
:104D4000F7E084918F01882311F40C94FC1A082E4B
:104D5000000C990B0E9447AF0F5F1F4FF801849121
:104D6000F2CF8FE40E94F0D081110C94FC1A83E4FE
:104D70000E94F0D00C94FC1A83E50E94F0D08111BF
:104D800059C08FE40E94F0D0882319F08FE497E097
:104D900007C084E50E94F0D0882349F087E297E0BD
:104DA0009093A01B80939F1B0E949E9143C083E41D
:104DB0000E94F0D0882319F08EEF96E0F1CF81E5C4
:104DC0000E94F0D0882319F086ED96E0E9CF88E4C0
:104DD0000E94F0D08823C9F0E2EDF6E084918F01C3
:104DE000882351F0082E000C990B0E9447AF0F5FEB
:104DF0001F4FF8018491F4CF8DE090E00E9447AFFF
:104E00008AE090E00E9447AF15C08CE40E94F0D089
:104E1000882381F0EEECF6E084918F01882361F322
:104E2000082E000C990B0E9447AF0F5F1F4FF8012F
:104E30008491F4CFE6E9F7E084918F01882311F49F
:104E40000C94FC1A082E000C990B0E9447AF0F5FC0
:104E50001F4FF8018491F2CF80911C0D80911D0DA0
:104E60000C94FC1A83E50E94F0D0882309F46EC0EC
:104E700086EA96E09093A01B80939F1B0E949E91D0
:104E8000E6E9F7E084918F01882311F40C94FC1A71
:104E9000082E000C990B0E9447AF0F5F1F4FF801BF
:104EA0008491F2CFE1EAF6E084918F01882351F0FA
:104EB000082E000C990B0E9447AF0F5F1F4FF8019F
:104EC0008491F4CFECE9F6E084918F01882311F40A
:104ED0000C94FC1A082E000C990B0E9447AF0F5F30
:104EE0001F4FF8018491F2CF88E50E94F0D0811124
:104EF00006C089E50E94F0D0882309F485C088E5C2
:104F00000E94F0D0882341F08DE398E09093A01B9D
:104F100080939F1B0E949E9189E50E94F0D0882378
:104F200041F087E398E09093A01B80939F1B0E9421
:104F30009E918AE50E94F0D0882341F081E398E0B9
:104F40009093A01B80939F1B0E949E918091A31120
:104F50009091A411019664E070E00E94B7F89093DC
:104F6000A4118093A31180919F119091A01101969B
:104F70009093A01180939F111092A7111092A611E7
:104F80000C947F194091A3115091A4119F012F5FA0
:104F90003F4F3093A7112093A61190E6949F900164
:104FA000959F300D1124235E3F4EE20FF31F828345
:104FB0000C947F1910921E100E944E986093AD11B0
:104FC0007093AE118093AF119093B01180919B0DAF
:104FD000882319F081E080939A0D81E080931D1061
:104FE0001092B911E0E5F8E084918F01882311F463
:104FF0000C94FC1A082E000C990B0E9447AF0F5F0F
:105000001F4FF8018491F2CF8AE50E94F0D0811100
:1050100076CF83E40E94F0D0882309F497CF8DE205
:1050200098E08ECF86E40E94F0D0882309F44DC129
:105030000E940BD10E9417F78B0189E298E09093B0
:10504000A01B80939F1B0E949E9188E50E94F0D038
:10505000882309F451C00E940BD12B013C012DEC97
:105060003CEC4CE45EE30E9451F19E012F5F3F4F08
:105070007901181674F020E030E0A901C301B201F3
:105080000E94F4F718162CF41F930F938EE198E00A
:1050900005C12DEC3CEC4CEC5DEBC301B2010E9470
:1050A00051F118167CF020E030E040E85FEBC301DE
:1050B000B2010E94F4F718162CF41F930F9382E1AB
:1050C00098E0ECC01F930F93C301B2010E9412F746
:1050D0007F936F9388E098E09F938F93FF92EF9276
:1050E0000E9423F10FB6F894DEBF0FBECDBFCE01F4
:1050F00001960E947991DFC089E50E94F0D0882353
:1051000009F441C00E940BD12B013C012DEC3CEC79
:105110004CE45EE30E9451F1FE0131967F011816C6
:1051200074F020E030E0A901C301B2010E94F4F75D
:1051300018162CF41F930F938DEF97E0AFC02DEC52
:105140003CEC4CEC5DEBC301B2010E9451F118162E
:105150007CF020E030E040E85FEBC301B2010E9448
:10516000F4F718162CF41F930F9381EF97E096C075
:105170001F930F93C301B2010E9412F77F936F93A5
:1051800087EE97E0A9CF8AE50E94F0D0882309F442
:1051900041C00E940BD12B013C012DEC3CEC4CE4B6
:1051A0005EE30E9451F1FE0131967F01181674F002
:1051B00020E030E0A901C301B2010E94F4F7181603
:1051C0002CF41F930F938CED97E068C02DEC3CEC12
:1051D0004CEC5DEBC301B2010E9451F118167CF05A
:1051E00020E030E040E85FEBC301B2010E94F4F739
:1051F00018162CF41F930F9380ED97E04FC01F9368
:105200000F93C301B2010E9412F77F936F9386EC54
:1052100097E062CF85E40E94F0D0882309F44BC068
:105220000E940BD12B013C012DEC3CEC4CE45EE3E5
:105230000E9451F1FE0131967F01181674F020E0B2
:1052400030E0A901C301B2010E94F4F718162CF452
:105250001F930F938BEB97E021C02DEC3CEC4CECB3
:105260005DEBC301B2010E9451F118167CF020E001
:1052700030E040E85FEBC301B2010E94F4F718167A
:105280002CF41F930F938FEA97E008C0C301B2017B
:105290000E9412F77F936F9384EA97E09F938F9316
:1052A000FF92EF920E9423F10F900F900F900F90BA
:1052B0000F900F901CCF80EA97E09093A01B8093F3
:1052C0009F1B0E949E910C94FC1A00E010E0B5CE4A
:1052D00020E030E040E251E46091570470915804BE
:1052E0008091590490915A040E9451F187FF08C09F
:1052F00089E997E09093A01B80939F1B0E949E9149
:1053000082E390E090934804809347040E94729C4B
:1053100088EC90E00E94089DE6E9F7E084918F0117
:10532000882311F40C94FC1A082E000C990B0E948F
:1053300047AF0F5F1F4FF8018491F2CF20E030E0BC
:1053400040E251E4609157047091580480915904EF
:1053500090915A040E9451F187FF08C08FE897E0AE
:105360009093A01B80939F1B0E949E9180E590E0EC
:1053700090934804809347040E94729C80EF90E0D1
:105380000E94089DE6E9F7E084918F01882311F4DB
:105390000C94FC1A082E000C990B0E9447AF0F5F6B
:1053A0001F4FF8018491F2CF80E090E00E94089DA9
:1053B00010924804109247040E94729CEBE8F7E0B8
:1053C00084918F01882311F40C94FC1A082E000C90
:1053D000990B0E9447AF0F5F1F4FF8018491F2CFE6
:1053E000A7960FB6F894DEBF0FBECDBFDF91CF9169
:1053F0001F910F91FF90EF90DF90CF90BF90AF90F3
:105400009F908F907F906F905F904F903F902F90E4
:1054100008952F923F924F925F926F927F928F9258
:105420009F92AF92BF92CF92DF92EF92FF920F9333
:105430001F93CF93DF93CDB7DEB7C354D1090FB617
:10544000F894DEBF0FBECDBF11E01093AE1B80916C
:1054500046138D3409F459C5843511F40C94E33D99
:10546000873411F00C942F3E809144139091451392
:105470008B31910509F403C2A4F48430910534F40E
:105480008230910594F597FF29C03BC58430910582
:1054900009F4BFC14A9709F034C50E94E3450C9452
:1054A000313E8A32910509F421C444F48C319105CE
:1054B00009F415C24D9709F417C223C58B35910520
:1054C00009F49FC48C35910509F49FC48A35910570
:1054D00009F017C5109274040C94313E8091520269
:1054E00081110C94363E0C94313E209152022223BD
:1054F00011F40C94313E11E0029709F010E00E9483
:10550000F66319821A821B821C821D821E821F82F0
:10551000188682E50E944644882309F42AC10E9425
:10552000C6434B015C0120E030E0A9010E9451F12B
:10553000882309F434C140914F0450915004609184
:1055400051047091520448A759A76AA77BA760919C
:1055500053047091540480915504909156046CA7A3
:105560007DA78EA79FA78091001C9091011CA09100
:10557000021CB091031C88AB99ABAAABBBAB4091AA
:10558000041C5091051C6091061C7091071C4CABCB
:105590005DAB6EAB7FAB9C01AD0168A579A58AA51B
:1055A0009BA50E9451F181110DC02CA93DA94EA9C6
:1055B0005FA96CA57DA58EA59FA50E9451F18823AA
:1055C00009F4EDC020E030E0A901C501B4010E945A
:1055D00051F1881F8827881F181749F060E070E094
:1055E00080E89FEB6CAF7DAF8EAF9FAF08C080E0CF
:1055F00090E0A0E8BFE38CAF9DAFAEAFBFAF28A5F2
:1056000039A54AA55BA568A979A98AA99BA90E9481
:10561000CDF568AF79AF8AAF9BAF2CA53DA54EA560
:105620005FA56CA97DA98EA99FA90E94CDF56B01EC
:105630007C0128AD39AD4AAD5BADCA01B9010E940C
:10564000B6F12B013C01A7019601C701B6010E94EA
:10565000B6F19B01AC01C301B2010E94CEF50E94DC
:1056600039F82B013C0120E030E040E05FE30E948C
:10567000B6F124966CAF7DAF8EAF9FAF2497A50196
:105680009401C501B4010E94B6F14B015C0124965E
:105690002CAD3DAD4EAD5FAD2497CA01B9010E945E
:1056A000B6F19B01AC01C501B4010E94CDF50E9489
:1056B00039F82CAD3DAD4EAD5FAD0E94B6F14B015A
:1056C0005C01C701B6019058A30192010E94AAF69D
:1056D000A50194010E94B6F16B017C0128A939A9AA
:1056E0004AA95BA968A579A58AA59BA50E94CEF5C4
:1056F00020E030E040E05FE30E94B6F19B01AC01A6
:10570000C701B6010E94CEF528A539A54AA55BA51B
:105710000E94CDF569837A838B839C832CA93DA954
:105720004EA95FA96CA57DA58EA59FA50E94CEF56B
:1057300020E030E040E05FE30E94B6F16B017C01C5
:10574000A301920168AD79AD8AAD9BAD0E94AAF626
:10575000A50194010E94B6F19B01AC01C701B601FD
:105760000E94CEF52CA53DA54EA55FA50E94CDF5C6
:1057700012C089E40E944644882331F00E94C64347
:1057800069837A838B839C838AE40E9446448823BE
:1057900031F00E94C6436D837E838F83988720E01B
:1057A00030E0A90169817A818B819C810E9451F14D
:1057B00081110EC020E030E0A9016D817E818F81D2
:1057C00098850E9451F1811103C0EDE7F7E20DC009
:1057D000412FBE016F5F7F4F80E09CE10E9403B3C9
:1057E0000C94313E0E94ED90F80184918F010F5F7F
:1057F0001F4F8111F7CFE7E2F9E084918F010F5F2E
:105800001F4F882311F40C94313E0E94ED90F80153
:10581000F4CF80E50E944644882329F00E94FB8F44
:105820006B017C0103C0C12CD12C760183E50E9461
:105830004644882361F00E94C64320E030E04AE7F6
:1058400054E40E94B6F10E9417F76B017C010E949C
:10585000AC770E944E98C60ED71EE81EF91E0E9415
:105860004E98DC01CB018C199D09AE09BF09B7FD2B
:1058700002C00C94313E80E00E942FA0F0CF0E9425
:1058800026D281110C94313E80E090E0A0EAB0E491
:1058900089839A83AB83BC8380E090E0ADE4B3E47A
:1058A0008D839E83AF83B88780E090E0A0EAB1E467
:1058B00089879A87AB87BC8780E50E944644882306
:1058C00019F00E94964301C060E068A3BE016F5FBB
:1058D0007F4FCE0180960E94F4C70C94313E80E049
:1058E0000E9408630C94313E83E50E94464488235D
:1058F00021F10E94A643182F863070F0EDEEF9E0FA
:1059000084918F010F5F1F4F882311F40C94313E57
:105910000E94ED90F801F4CF833009F44AC130F4CD
:10592000813091F1823009F43FC008C0843009F41D
:10593000ABC1853009F4B8C101C010E00E94A28D4E
:10594000811103C0EDECF9E013C08091CB1B8823DB
:1059500019F069E174E002C06DE174E085EC99E052
:105960000E9419BE8AE00E94ED900E948AC8A2C1DE
:1059700084917F019FEFE91AF90A882309F49AC1FB
:105980000E94ED90F701F4CF0E943DC910920302EE
:10599000109202028AEB99E09093A01B80939F1BC8
:1059A0000E949E910C94313E8091020290910302DC
:1059B00097FF0EC0E1E9F9E084918F010F5F1F4F5F
:1059C000882311F40C94313E0E94ED90F801F4CF3D
:1059D0000097A1F4809139028093750419821A828C
:1059E0001B821C8218A219A21AA21BA2BE016F5F01
:1059F0007F4FCE0180960E94568F27C0815065E070
:105A00000E9496F880FF03C024E0291B922FA5E096
:105A10009A02F0011124E80FF11D87FDFA95EE0FAF
:105A2000FF1FEE0FFF1FEF5DF44E80915704909122
:105A30005804A0915904B0915A0480839183A283A1
:105A4000B383809175048093390280910202909112
:105A50000302893191050CF067C0109239029C0154
:105A60002F5F3F4F309303022093020265E00E94B4
:105A700096F880FF03C024E0291B922F4091570421
:105A8000509158046091590470915A0448A359A345
:105A90006AA37BA319821A821B821C82B4E08B0248
:105AA00090011124F901EE5AF24F4F01208131810A
:105AB00042815381F4E09F02C0011124BC016A5964
:105AC000724F5B01DB016D917D918D919C91FE0187
:105AD00031966F01E12CF12C00EA10E40E94468E11
